{
  "_format": "hh-sol-artifact-1",
  "contractName": "HeraCollection",
  "sourceName": "contracts/HeraCollection.sol",
  "abi": [
    {
      "inputs": [
        {
          "internalType": "address",
          "name": "_marketplaceContractAddress",
          "type": "address"
        }
      ],
      "stateMutability": "nonpayable",
      "type": "constructor"
    },
    {
      "anonymous": false,
      "inputs": [
        {
          "indexed": true,
          "internalType": "address",
          "name": "owner",
          "type": "address"
        },
        {
          "indexed": true,
          "internalType": "address",
          "name": "approved",
          "type": "address"
        },
        {
          "indexed": true,
          "internalType": "uint256",
          "name": "tokenId",
          "type": "uint256"
        }
      ],
      "name": "Approval",
      "type": "event"
    },
    {
      "anonymous": false,
      "inputs": [
        {
          "indexed": true,
          "internalType": "address",
          "name": "owner",
          "type": "address"
        },
        {
          "indexed": true,
          "internalType": "address",
          "name": "operator",
          "type": "address"
        },
        {
          "indexed": false,
          "internalType": "bool",
          "name": "approved",
          "type": "bool"
        }
      ],
      "name": "ApprovalForAll",
      "type": "event"
    },
    {
      "anonymous": false,
      "inputs": [
        {
          "indexed": true,
          "internalType": "address",
          "name": "from",
          "type": "address"
        },
        {
          "indexed": true,
          "internalType": "address",
          "name": "to",
          "type": "address"
        },
        {
          "indexed": true,
          "internalType": "uint256",
          "name": "tokenId",
          "type": "uint256"
        }
      ],
      "name": "Transfer",
      "type": "event"
    },
    {
      "inputs": [
        {
          "internalType": "address",
          "name": "to",
          "type": "address"
        },
        {
          "internalType": "uint256",
          "name": "tokenId",
          "type": "uint256"
        }
      ],
      "name": "approve",
      "outputs": [],
      "stateMutability": "nonpayable",
      "type": "function"
    },
    {
      "inputs": [
        {
          "internalType": "address",
          "name": "owner",
          "type": "address"
        }
      ],
      "name": "balanceOf",
      "outputs": [
        {
          "internalType": "uint256",
          "name": "",
          "type": "uint256"
        }
      ],
      "stateMutability": "view",
      "type": "function"
    },
    {
      "inputs": [
        {
          "internalType": "string",
          "name": "tokenURI",
          "type": "string"
        }
      ],
      "name": "createBoredHera",
      "outputs": [
        {
          "internalType": "uint256",
          "name": "",
          "type": "uint256"
        }
      ],
      "stateMutability": "nonpayable",
      "type": "function"
    },
    {
      "inputs": [
        {
          "internalType": "uint256",
          "name": "tokenId",
          "type": "uint256"
        }
      ],
      "name": "getApproved",
      "outputs": [
        {
          "internalType": "address",
          "name": "",
          "type": "address"
        }
      ],
      "stateMutability": "view",
      "type": "function"
    },
    {
      "inputs": [
        {
          "internalType": "address",
          "name": "owner",
          "type": "address"
        },
        {
          "internalType": "address",
          "name": "operator",
          "type": "address"
        }
      ],
      "name": "isApprovedForAll",
      "outputs": [
        {
          "internalType": "bool",
          "name": "",
          "type": "bool"
        }
      ],
      "stateMutability": "view",
      "type": "function"
    },
    {
      "inputs": [],
      "name": "name",
      "outputs": [
        {
          "internalType": "string",
          "name": "",
          "type": "string"
        }
      ],
      "stateMutability": "view",
      "type": "function"
    },
    {
      "inputs": [
        {
          "internalType": "uint256",
          "name": "tokenId",
          "type": "uint256"
        }
      ],
      "name": "ownerOf",
      "outputs": [
        {
          "internalType": "address",
          "name": "",
          "type": "address"
        }
      ],
      "stateMutability": "view",
      "type": "function"
    },
    {
      "inputs": [
        {
          "internalType": "address",
          "name": "from",
          "type": "address"
        },
        {
          "internalType": "address",
          "name": "to",
          "type": "address"
        },
        {
          "internalType": "uint256",
          "name": "tokenId",
          "type": "uint256"
        }
      ],
      "name": "safeTransferFrom",
      "outputs": [],
      "stateMutability": "nonpayable",
      "type": "function"
    },
    {
      "inputs": [
        {
          "internalType": "address",
          "name": "from",
          "type": "address"
        },
        {
          "internalType": "address",
          "name": "to",
          "type": "address"
        },
        {
          "internalType": "uint256",
          "name": "tokenId",
          "type": "uint256"
        },
        {
          "internalType": "bytes",
          "name": "_data",
          "type": "bytes"
        }
      ],
      "name": "safeTransferFrom",
      "outputs": [],
      "stateMutability": "nonpayable",
      "type": "function"
    },
    {
      "inputs": [
        {
          "internalType": "address",
          "name": "operator",
          "type": "address"
        },
        {
          "internalType": "bool",
          "name": "approved",
          "type": "bool"
        }
      ],
      "name": "setApprovalForAll",
      "outputs": [],
      "stateMutability": "nonpayable",
      "type": "function"
    },
    {
      "inputs": [
        {
          "internalType": "bytes4",
          "name": "interfaceId",
          "type": "bytes4"
        }
      ],
      "name": "supportsInterface",
      "outputs": [
        {
          "internalType": "bool",
          "name": "",
          "type": "bool"
        }
      ],
      "stateMutability": "view",
      "type": "function"
    },
    {
      "inputs": [],
      "name": "symbol",
      "outputs": [
        {
          "internalType": "string",
          "name": "",
          "type": "string"
        }
      ],
      "stateMutability": "view",
      "type": "function"
    },
    {
      "inputs": [
        {
          "internalType": "uint256",
          "name": "tokenId",
          "type": "uint256"
        }
      ],
      "name": "tokenURI",
      "outputs": [
        {
          "internalType": "string",
          "name": "",
          "type": "string"
        }
      ],
      "stateMutability": "view",
      "type": "function"
    },
    {
      "inputs": [
        {
          "internalType": "address",
          "name": "from",
          "type": "address"
        },
        {
          "internalType": "address",
          "name": "to",
          "type": "address"
        },
        {
          "internalType": "uint256",
          "name": "tokenId",
          "type": "uint256"
        }
      ],
      "name": "transferFrom",
      "outputs": [],
      "stateMutability": "nonpayable",
      "type": "function"
    }
  ],
  "bytecode": "0x60806040523480156200001157600080fd5b5060405162002f4338038062002f43833981810160405281019062000037919062000239565b6040518060400160405280600881526020017f4d657461526f636b0000000000000000000000000000000000000000000000008152506040518060400160405280600881526020017f4d657461526f636b0000000000000000000000000000000000000000000000008152508160009080519060200190620000bb9291906200011f565b508060019080519060200190620000d49291906200011f565b50505080600860006101000a81548173ffffffffffffffffffffffffffffffffffffffff021916908373ffffffffffffffffffffffffffffffffffffffff16021790555050620002d0565b8280546200012d906200029a565b90600052602060002090601f0160209004810192826200015157600085556200019d565b82601f106200016c57805160ff19168380011785556200019d565b828001600101855582156200019d579182015b828111156200019c5782518255916020019190600101906200017f565b5b509050620001ac9190620001b0565b5090565b5b80821115620001cb576000816000905550600101620001b1565b5090565b600080fd5b600073ffffffffffffffffffffffffffffffffffffffff82169050919050565b60006200020182620001d4565b9050919050565b6200021381620001f4565b81146200021f57600080fd5b50565b600081519050620002338162000208565b92915050565b600060208284031215620002525762000251620001cf565b5b6000620002628482850162000222565b91505092915050565b7f4e487b7100000000000000000000000000000000000000000000000000000000600052602260045260246000fd5b60006002820490506001821680620002b357607f821691505b60208210811415620002ca57620002c96200026b565b5b50919050565b612c6380620002e06000396000f3fe608060405234801561001057600080fd5b50600436106100ea5760003560e01c80636352211e1161008c578063a22cb46511610066578063a22cb4651461026f578063b88d4fde1461028b578063c87b56dd146102a7578063e985e9c5146102d7576100ea565b80636352211e146101f157806370a082311461022157806395d89b4114610251576100ea565b8063095ea7b3116100c8578063095ea7b31461016d57806323b872dd146101895780634173b875146101a557806342842e0e146101d5576100ea565b806301ffc9a7146100ef57806306fdde031461011f578063081812fc1461013d575b600080fd5b610109600480360381019061010491906119d8565b610307565b6040516101169190611a20565b60405180910390f35b6101276103e9565b6040516101349190611ad4565b60405180910390f35b61015760048036038101906101529190611b2c565b61047b565b6040516101649190611b9a565b60405180910390f35b61018760048036038101906101829190611be1565b610500565b005b6101a3600480360381019061019e9190611c21565b610618565b005b6101bf60048036038101906101ba9190611da9565b610678565b6040516101cc9190611e01565b60405180910390f35b6101ef60048036038101906101ea9190611c21565b6106dc565b005b61020b60048036038101906102069190611b2c565b6106fc565b6040516102189190611b9a565b60405180910390f35b61023b60048036038101906102369190611e1c565b6107ae565b6040516102489190611e01565b60405180910390f35b610259610866565b6040516102669190611ad4565b60405180910390f35b61028960048036038101906102849190611e75565b6108f8565b005b6102a560048036038101906102a09190611f56565b61090e565b005b6102c160048036038101906102bc9190611b2c565b610970565b6040516102ce9190611ad4565b60405180910390f35b6102f160048036038101906102ec9190611fd9565b610ac2565b6040516102fe9190611a20565b60405180910390f35b60007f80ac58cd000000000000000000000000000000000000000000000000000000007bffffffffffffffffffffffffffffffffffffffffffffffffffffffff1916827bffffffffffffffffffffffffffffffffffffffffffffffffffffffff191614806103d257507f5b5e139f000000000000000000000000000000000000000000000000000000007bffffffffffffffffffffffffffffffffffffffffffffffffffffffff1916827bffffffffffffffffffffffffffffffffffffffffffffffffffffffff1916145b806103e257506103e182610b56565b5b9050919050565b6060600080546103f890612048565b80601f016020809104026020016040519081016040528092919081815260200182805461042490612048565b80156104715780601f1061044657610100808354040283529160200191610471565b820191906000526020600020905b81548152906001019060200180831161045457829003601f168201915b5050505050905090565b600061048682610bc0565b6104c5576040517f08c379a00000000000000000000000000000000000000000000000000000000081526004016104bc906120ec565b60405180910390fd5b6004600083815260200190815260200160002060009054906101000a900473ffffffffffffffffffffffffffffffffffffffff169050919050565b600061050b826106fc565b90508073ffffffffffffffffffffffffffffffffffffffff168373ffffffffffffffffffffffffffffffffffffffff16141561057c576040517f08c379a00000000000000000000000000000000000000000000000000000000081526004016105739061217e565b60405180910390fd5b8073ffffffffffffffffffffffffffffffffffffffff1661059b610c2c565b73ffffffffffffffffffffffffffffffffffffffff1614806105ca57506105c9816105c4610c2c565b610ac2565b5b610609576040517f08c379a000000000000000000000000000000000000000000000000000000000815260040161060090612210565b60405180910390fd5b6106138383610c34565b505050565b610629610623610c2c565b82610ced565b610668576040517f08c379a000000000000000000000000000000000000000000000000000000000815260040161065f906122a2565b60405180910390fd5b610673838383610dcb565b505050565b60006106846007611032565b60006106906007611048565b905061069c3382611056565b6106a68184611074565b6106d3600860009054906101000a900473ffffffffffffffffffffffffffffffffffffffff1660016108f8565b80915050919050565b6106f78383836040518060200160405280600081525061090e565b505050565b6000806002600084815260200190815260200160002060009054906101000a900473ffffffffffffffffffffffffffffffffffffffff169050600073ffffffffffffffffffffffffffffffffffffffff168173ffffffffffffffffffffffffffffffffffffffff1614156107a5576040517f08c379a000000000000000000000000000000000000000000000000000000000815260040161079c90612334565b60405180910390fd5b80915050919050565b60008073ffffffffffffffffffffffffffffffffffffffff168273ffffffffffffffffffffffffffffffffffffffff16141561081f576040517f08c379a0000000000000000000000000000000000000000000000000000000008152600401610816906123c6565b60405180910390fd5b600360008373ffffffffffffffffffffffffffffffffffffffff1673ffffffffffffffffffffffffffffffffffffffff168152602001908152602001600020549050919050565b60606001805461087590612048565b80601f01602080910402602001604051908101604052809291908181526020018280546108a190612048565b80156108ee5780601f106108c3576101008083540402835291602001916108ee565b820191906000526020600020905b8154815290600101906020018083116108d157829003601f168201915b5050505050905090565b61090a610903610c2c565b83836110e8565b5050565b61091f610919610c2c565b83610ced565b61095e576040517f08c379a0000000000000000000000000000000000000000000000000000000008152600401610955906122a2565b60405180910390fd5b61096a84848484611255565b50505050565b606061097b82610bc0565b6109ba576040517f08c379a00000000000000000000000000000000000000000000000000000000081526004016109b190612458565b60405180910390fd5b60006006600084815260200190815260200160002080546109da90612048565b80601f0160208091040260200160405190810160405280929190818152602001828054610a0690612048565b8015610a535780601f10610a2857610100808354040283529160200191610a53565b820191906000526020600020905b815481529060010190602001808311610a3657829003601f168201915b505050505090506000610a646112b1565b9050600081511415610a7a578192505050610abd565b600082511115610aaf578082604051602001610a979291906124b4565b60405160208183030381529060405292505050610abd565b610ab8846112c8565b925050505b919050565b6000600560008473ffffffffffffffffffffffffffffffffffffffff1673ffffffffffffffffffffffffffffffffffffffff16815260200190815260200160002060008373ffffffffffffffffffffffffffffffffffffffff1673ffffffffffffffffffffffffffffffffffffffff16815260200190815260200160002060009054906101000a900460ff16905092915050565b60007f01ffc9a7000000000000000000000000000000000000000000000000000000007bffffffffffffffffffffffffffffffffffffffffffffffffffffffff1916827bffffffffffffffffffffffffffffffffffffffffffffffffffffffff1916149050919050565b60008073ffffffffffffffffffffffffffffffffffffffff166002600084815260200190815260200160002060009054906101000a900473ffffffffffffffffffffffffffffffffffffffff1673ffffffffffffffffffffffffffffffffffffffff1614159050919050565b600033905090565b816004600083815260200190815260200160002060006101000a81548173ffffffffffffffffffffffffffffffffffffffff021916908373ffffffffffffffffffffffffffffffffffffffff160217905550808273ffffffffffffffffffffffffffffffffffffffff16610ca7836106fc565b73ffffffffffffffffffffffffffffffffffffffff167f8c5be1e5ebec7d5bd14f71427d1e84f3dd0314c0f7b2291e5b200ac8c7c3b92560405160405180910390a45050565b6000610cf882610bc0565b610d37576040517f08c379a0000000000000000000000000000000000000000000000000000000008152600401610d2e9061254a565b60405180910390fd5b6000610d42836106fc565b90508073ffffffffffffffffffffffffffffffffffffffff168473ffffffffffffffffffffffffffffffffffffffff161480610db157508373ffffffffffffffffffffffffffffffffffffffff16610d998461047b565b73ffffffffffffffffffffffffffffffffffffffff16145b80610dc25750610dc18185610ac2565b5b91505092915050565b8273ffffffffffffffffffffffffffffffffffffffff16610deb826106fc565b73ffffffffffffffffffffffffffffffffffffffff1614610e41576040517f08c379a0000000000000000000000000000000000000000000000000000000008152600401610e38906125dc565b60405180910390fd5b600073ffffffffffffffffffffffffffffffffffffffff168273ffffffffffffffffffffffffffffffffffffffff161415610eb1576040517f08c379a0000000000000000000000000000000000000000000000000000000008152600401610ea89061266e565b60405180910390fd5b610ebc83838361136f565b610ec7600082610c34565b6001600360008573ffffffffffffffffffffffffffffffffffffffff1673ffffffffffffffffffffffffffffffffffffffff1681526020019081526020016000206000828254610f1791906126bd565b925050819055506001600360008473ffffffffffffffffffffffffffffffffffffffff1673ffffffffffffffffffffffffffffffffffffffff1681526020019081526020016000206000828254610f6e91906126f1565b92505081905550816002600083815260200190815260200160002060006101000a81548173ffffffffffffffffffffffffffffffffffffffff021916908373ffffffffffffffffffffffffffffffffffffffff160217905550808273ffffffffffffffffffffffffffffffffffffffff168473ffffffffffffffffffffffffffffffffffffffff167fddf252ad1be2c89b69c2b068fc378daa952ba7f163c4a11628f55a4df523b3ef60405160405180910390a461102d838383611374565b505050565b6001816000016000828254019250508190555050565b600081600001549050919050565b611070828260405180602001604052806000815250611379565b5050565b61107d82610bc0565b6110bc576040517f08c379a00000000000000000000000000000000000000000000000000000000081526004016110b3906127b9565b60405180910390fd5b806006600084815260200190815260200160002090805190602001906110e39291906118c9565b505050565b8173ffffffffffffffffffffffffffffffffffffffff168373ffffffffffffffffffffffffffffffffffffffff161415611157576040517f08c379a000000000000000000000000000000000000000000000000000000000815260040161114e90612825565b60405180910390fd5b80600560008573ffffffffffffffffffffffffffffffffffffffff1673ffffffffffffffffffffffffffffffffffffffff16815260200190815260200160002060008473ffffffffffffffffffffffffffffffffffffffff1673ffffffffffffffffffffffffffffffffffffffff16815260200190815260200160002060006101000a81548160ff0219169083151502179055508173ffffffffffffffffffffffffffffffffffffffff168373ffffffffffffffffffffffffffffffffffffffff167f17307eab39ab6107e8899845ad3d59bd9653f200f220920489ca2b5937696c31836040516112489190611a20565b60405180910390a3505050565b611260848484610dcb565b61126c848484846113d4565b6112ab576040517f08c379a00000000000000000000000000000000000000000000000000000000081526004016112a2906128b7565b60405180910390fd5b50505050565b606060405180602001604052806000815250905090565b60606112d382610bc0565b611312576040517f08c379a000000000000000000000000000000000000000000000000000000000815260040161130990612949565b60405180910390fd5b600061131c6112b1565b9050600081511161133c5760405180602001604052806000815250611367565b806113468461156b565b6040516020016113579291906124b4565b6040516020818303038152906040525b915050919050565b505050565b505050565b61138383836116cc565b61139060008484846113d4565b6113cf576040517f08c379a00000000000000000000000000000000000000000000000000000000081526004016113c6906128b7565b60405180910390fd5b505050565b60006113f58473ffffffffffffffffffffffffffffffffffffffff166118a6565b1561155e578373ffffffffffffffffffffffffffffffffffffffff1663150b7a0261141e610c2c565b8786866040518563ffffffff1660e01b815260040161144094939291906129be565b602060405180830381600087803b15801561145a57600080fd5b505af192505050801561148b57506040513d601f19601f820116820180604052508101906114889190612a1f565b60015b61150e573d80600081146114bb576040519150601f19603f3d011682016040523d82523d6000602084013e6114c0565b606091505b50600081511415611506576040517f08c379a00000000000000000000000000000000000000000000000000000000081526004016114fd906128b7565b60405180910390fd5b805181602001fd5b63150b7a0260e01b7bffffffffffffffffffffffffffffffffffffffffffffffffffffffff1916817bffffffffffffffffffffffffffffffffffffffffffffffffffffffff191614915050611563565b600190505b949350505050565b606060008214156115b3576040518060400160405280600181526020017f300000000000000000000000000000000000000000000000000000000000000081525090506116c7565b600082905060005b600082146115e55780806115ce90612a4c565b915050600a826115de9190612ac4565b91506115bb565b60008167ffffffffffffffff81111561160157611600611c7e565b5b6040519080825280601f01601f1916602001820160405280156116335781602001600182028036833780820191505090505b5090505b600085146116c05760018261164c91906126bd565b9150600a8561165b9190612af5565b603061166791906126f1565b60f81b81838151811061167d5761167c612b26565b5b60200101907effffffffffffffffffffffffffffffffffffffffffffffffffffffffffffff1916908160001a905350600a856116b99190612ac4565b9450611637565b8093505050505b919050565b600073ffffffffffffffffffffffffffffffffffffffff168273ffffffffffffffffffffffffffffffffffffffff16141561173c576040517f08c379a000000000000000000000000000000000000000000000000000000000815260040161173390612ba1565b60405180910390fd5b61174581610bc0565b15611785576040517f08c379a000000000000000000000000000000000000000000000000000000000815260040161177c90612c0d565b60405180910390fd5b6117916000838361136f565b6001600360008473ffffffffffffffffffffffffffffffffffffffff1673ffffffffffffffffffffffffffffffffffffffff16815260200190815260200160002060008282546117e191906126f1565b92505081905550816002600083815260200190815260200160002060006101000a81548173ffffffffffffffffffffffffffffffffffffffff021916908373ffffffffffffffffffffffffffffffffffffffff160217905550808273ffffffffffffffffffffffffffffffffffffffff16600073ffffffffffffffffffffffffffffffffffffffff167fddf252ad1be2c89b69c2b068fc378daa952ba7f163c4a11628f55a4df523b3ef60405160405180910390a46118a260008383611374565b5050565b6000808273ffffffffffffffffffffffffffffffffffffffff163b119050919050565b8280546118d590612048565b90600052602060002090601f0160209004810192826118f7576000855561193e565b82601f1061191057805160ff191683800117855561193e565b8280016001018555821561193e579182015b8281111561193d578251825591602001919060010190611922565b5b50905061194b919061194f565b5090565b5b80821115611968576000816000905550600101611950565b5090565b6000604051905090565b600080fd5b600080fd5b60007fffffffff0000000000000000000000000000000000000000000000000000000082169050919050565b6119b581611980565b81146119c057600080fd5b50565b6000813590506119d2816119ac565b92915050565b6000602082840312156119ee576119ed611976565b5b60006119fc848285016119c3565b91505092915050565b60008115159050919050565b611a1a81611a05565b82525050565b6000602082019050611a356000830184611a11565b92915050565b600081519050919050565b600082825260208201905092915050565b60005b83811015611a75578082015181840152602081019050611a5a565b83811115611a84576000848401525b50505050565b6000601f19601f8301169050919050565b6000611aa682611a3b565b611ab08185611a46565b9350611ac0818560208601611a57565b611ac981611a8a565b840191505092915050565b60006020820190508181036000830152611aee8184611a9b565b905092915050565b6000819050919050565b611b0981611af6565b8114611b1457600080fd5b50565b600081359050611b2681611b00565b92915050565b600060208284031215611b4257611b41611976565b5b6000611b5084828501611b17565b91505092915050565b600073ffffffffffffffffffffffffffffffffffffffff82169050919050565b6000611b8482611b59565b9050919050565b611b9481611b79565b82525050565b6000602082019050611baf6000830184611b8b565b92915050565b611bbe81611b79565b8114611bc957600080fd5b50565b600081359050611bdb81611bb5565b92915050565b60008060408385031215611bf857611bf7611976565b5b6000611c0685828601611bcc565b9250506020611c1785828601611b17565b9150509250929050565b600080600060608486031215611c3a57611c39611976565b5b6000611c4886828701611bcc565b9350506020611c5986828701611bcc565b9250506040611c6a86828701611b17565b9150509250925092565b600080fd5b600080fd5b7f4e487b7100000000000000000000000000000000000000000000000000000000600052604160045260246000fd5b611cb682611a8a565b810181811067ffffffffffffffff82111715611cd557611cd4611c7e565b5b80604052505050565b6000611ce861196c565b9050611cf48282611cad565b919050565b600067ffffffffffffffff821115611d1457611d13611c7e565b5b611d1d82611a8a565b9050602081019050919050565b82818337600083830152505050565b6000611d4c611d4784611cf9565b611cde565b905082815260208101848484011115611d6857611d67611c79565b5b611d73848285611d2a565b509392505050565b600082601f830112611d9057611d8f611c74565b5b8135611da0848260208601611d39565b91505092915050565b600060208284031215611dbf57611dbe611976565b5b600082013567ffffffffffffffff811115611ddd57611ddc61197b565b5b611de984828501611d7b565b91505092915050565b611dfb81611af6565b82525050565b6000602082019050611e166000830184611df2565b92915050565b600060208284031215611e3257611e31611976565b5b6000611e4084828501611bcc565b91505092915050565b611e5281611a05565b8114611e5d57600080fd5b50565b600081359050611e6f81611e49565b92915050565b60008060408385031215611e8c57611e8b611976565b5b6000611e9a85828601611bcc565b9250506020611eab85828601611e60565b9150509250929050565b600067ffffffffffffffff821115611ed057611ecf611c7e565b5b611ed982611a8a565b9050602081019050919050565b6000611ef9611ef484611eb5565b611cde565b905082815260208101848484011115611f1557611f14611c79565b5b611f20848285611d2a565b509392505050565b600082601f830112611f3d57611f3c611c74565b5b8135611f4d848260208601611ee6565b91505092915050565b60008060008060808587031215611f7057611f6f611976565b5b6000611f7e87828801611bcc565b9450506020611f8f87828801611bcc565b9350506040611fa087828801611b17565b925050606085013567ffffffffffffffff811115611fc157611fc061197b565b5b611fcd87828801611f28565b91505092959194509250565b60008060408385031215611ff057611fef611976565b5b6000611ffe85828601611bcc565b925050602061200f85828601611bcc565b9150509250929050565b7f4e487b7100000000000000000000000000000000000000000000000000000000600052602260045260246000fd5b6000600282049050600182168061206057607f821691505b6020821081141561207457612073612019565b5b50919050565b7f4552433732313a20617070726f76656420717565727920666f72206e6f6e657860008201527f697374656e7420746f6b656e0000000000000000000000000000000000000000602082015250565b60006120d6602c83611a46565b91506120e18261207a565b604082019050919050565b60006020820190508181036000830152612105816120c9565b9050919050565b7f4552433732313a20617070726f76616c20746f2063757272656e74206f776e6560008201527f7200000000000000000000000000000000000000000000000000000000000000602082015250565b6000612168602183611a46565b91506121738261210c565b604082019050919050565b600060208201905081810360008301526121978161215b565b9050919050565b7f4552433732313a20617070726f76652063616c6c6572206973206e6f74206f7760008201527f6e6572206e6f7220617070726f76656420666f7220616c6c0000000000000000602082015250565b60006121fa603883611a46565b91506122058261219e565b604082019050919050565b60006020820190508181036000830152612229816121ed565b9050919050565b7f4552433732313a207472616e736665722063616c6c6572206973206e6f74206f60008201527f776e6572206e6f7220617070726f766564000000000000000000000000000000602082015250565b600061228c603183611a46565b915061229782612230565b604082019050919050565b600060208201905081810360008301526122bb8161227f565b9050919050565b7f4552433732313a206f776e657220717565727920666f72206e6f6e657869737460008201527f656e7420746f6b656e0000000000000000000000000000000000000000000000602082015250565b600061231e602983611a46565b9150612329826122c2565b604082019050919050565b6000602082019050818103600083015261234d81612311565b9050919050565b7f4552433732313a2062616c616e636520717565727920666f7220746865207a6560008201527f726f206164647265737300000000000000000000000000000000000000000000602082015250565b60006123b0602a83611a46565b91506123bb82612354565b604082019050919050565b600060208201905081810360008301526123df816123a3565b9050919050565b7f45524337323155524953746f726167653a2055524920717565727920666f722060008201527f6e6f6e6578697374656e7420746f6b656e000000000000000000000000000000602082015250565b6000612442603183611a46565b915061244d826123e6565b604082019050919050565b6000602082019050818103600083015261247181612435565b9050919050565b600081905092915050565b600061248e82611a3b565b6124988185612478565b93506124a8818560208601611a57565b80840191505092915050565b60006124c08285612483565b91506124cc8284612483565b91508190509392505050565b7f4552433732313a206f70657261746f7220717565727920666f72206e6f6e657860008201527f697374656e7420746f6b656e0000000000000000000000000000000000000000602082015250565b6000612534602c83611a46565b915061253f826124d8565b604082019050919050565b6000602082019050818103600083015261256381612527565b9050919050565b7f4552433732313a207472616e736665722066726f6d20696e636f72726563742060008201527f6f776e6572000000000000000000000000000000000000000000000000000000602082015250565b60006125c6602583611a46565b91506125d18261256a565b604082019050919050565b600060208201905081810360008301526125f5816125b9565b9050919050565b7f4552433732313a207472616e7366657220746f20746865207a65726f2061646460008201527f7265737300000000000000000000000000000000000000000000000000000000602082015250565b6000612658602483611a46565b9150612663826125fc565b604082019050919050565b600060208201905081810360008301526126878161264b565b9050919050565b7f4e487b7100000000000000000000000000000000000000000000000000000000600052601160045260246000fd5b60006126c882611af6565b91506126d383611af6565b9250828210156126e6576126e561268e565b5b828203905092915050565b60006126fc82611af6565b915061270783611af6565b9250827fffffffffffffffffffffffffffffffffffffffffffffffffffffffffffffffff0382111561273c5761273b61268e565b5b828201905092915050565b7f45524337323155524953746f726167653a2055524920736574206f66206e6f6e60008201527f6578697374656e7420746f6b656e000000000000000000000000000000000000602082015250565b60006127a3602e83611a46565b91506127ae82612747565b604082019050919050565b600060208201905081810360008301526127d281612796565b9050919050565b7f4552433732313a20617070726f766520746f2063616c6c657200000000000000600082015250565b600061280f601983611a46565b915061281a826127d9565b602082019050919050565b6000602082019050818103600083015261283e81612802565b9050919050565b7f4552433732313a207472616e7366657220746f206e6f6e20455243373231526560008201527f63656976657220696d706c656d656e7465720000000000000000000000000000602082015250565b60006128a1603283611a46565b91506128ac82612845565b604082019050919050565b600060208201905081810360008301526128d081612894565b9050919050565b7f4552433732314d657461646174613a2055524920717565727920666f72206e6f60008201527f6e6578697374656e7420746f6b656e0000000000000000000000000000000000602082015250565b6000612933602f83611a46565b915061293e826128d7565b604082019050919050565b6000602082019050818103600083015261296281612926565b9050919050565b600081519050919050565b600082825260208201905092915050565b600061299082612969565b61299a8185612974565b93506129aa818560208601611a57565b6129b381611a8a565b840191505092915050565b60006080820190506129d36000830187611b8b565b6129e06020830186611b8b565b6129ed6040830185611df2565b81810360608301526129ff8184612985565b905095945050505050565b600081519050612a19816119ac565b92915050565b600060208284031215612a3557612a34611976565b5b6000612a4384828501612a0a565b91505092915050565b6000612a5782611af6565b91507fffffffffffffffffffffffffffffffffffffffffffffffffffffffffffffffff821415612a8a57612a8961268e565b5b600182019050919050565b7f4e487b7100000000000000000000000000000000000000000000000000000000600052601260045260246000fd5b6000612acf82611af6565b9150612ada83611af6565b925082612aea57612ae9612a95565b5b828204905092915050565b6000612b0082611af6565b9150612b0b83611af6565b925082612b1b57612b1a612a95565b5b828206905092915050565b7f4e487b7100000000000000000000000000000000000000000000000000000000600052603260045260246000fd5b7f4552433732313a206d696e7420746f20746865207a65726f2061646472657373600082015250565b6000612b8b602083611a46565b9150612b9682612b55565b602082019050919050565b60006020820190508181036000830152612bba81612b7e565b9050919050565b7f4552433732313a20746f6b656e20616c7265616479206d696e74656400000000600082015250565b6000612bf7601c83611a46565b9150612c0282612bc1565b602082019050919050565b60006020820190508181036000830152612c2681612bea565b905091905056fea26469706673582212202b9fa45ba7f5a84366644f0e5d5da0e83ecd1a88932cf85c30f781735d87225664736f6c63430008090033",
  "linkReferences": {},
  "deployedLinkReferences": {}
}