{
  "_format": "hh-sol-artifact-1",
  "contractName": "MetaRockCollection",
  "sourceName": "contracts/MetaRockCollection.sol",
  "abi": [
    {
      "inputs": [
        {
          "internalType": "address",
          "name": "_marketplaceContractAddress",
          "type": "address"
        }
      ],
      "stateMutability": "nonpayable",
      "type": "constructor"
    },
    {
      "anonymous": false,
      "inputs": [
        {
          "indexed": true,
          "internalType": "address",
          "name": "owner",
          "type": "address"
        },
        {
          "indexed": true,
          "internalType": "address",
          "name": "approved",
          "type": "address"
        },
        {
          "indexed": true,
          "internalType": "uint256",
          "name": "tokenId",
          "type": "uint256"
        }
      ],
      "name": "Approval",
      "type": "event"
    },
    {
      "anonymous": false,
      "inputs": [
        {
          "indexed": true,
          "internalType": "address",
          "name": "owner",
          "type": "address"
        },
        {
          "indexed": true,
          "internalType": "address",
          "name": "operator",
          "type": "address"
        },
        {
          "indexed": false,
          "internalType": "bool",
          "name": "approved",
          "type": "bool"
        }
      ],
      "name": "ApprovalForAll",
      "type": "event"
    },
    {
      "anonymous": false,
      "inputs": [
        {
          "indexed": true,
          "internalType": "address",
          "name": "from",
          "type": "address"
        },
        {
          "indexed": true,
          "internalType": "address",
          "name": "to",
          "type": "address"
        },
        {
          "indexed": true,
          "internalType": "uint256",
          "name": "tokenId",
          "type": "uint256"
        }
      ],
      "name": "Transfer",
      "type": "event"
    },
    {
      "inputs": [
        {
          "internalType": "address",
          "name": "to",
          "type": "address"
        },
        {
          "internalType": "uint256",
          "name": "tokenId",
          "type": "uint256"
        }
      ],
      "name": "approve",
      "outputs": [],
      "stateMutability": "nonpayable",
      "type": "function"
    },
    {
      "inputs": [
        {
          "internalType": "address",
          "name": "owner",
          "type": "address"
        }
      ],
      "name": "balanceOf",
      "outputs": [
        {
          "internalType": "uint256",
          "name": "",
          "type": "uint256"
        }
      ],
      "stateMutability": "view",
      "type": "function"
    },
    {
      "inputs": [
        {
          "internalType": "address",
          "name": "to",
          "type": "address"
        },
        {
          "internalType": "string",
          "name": "tokenURI",
          "type": "string"
        }
      ],
      "name": "createNFT",
      "outputs": [
        {
          "internalType": "uint256",
          "name": "",
          "type": "uint256"
        }
      ],
      "stateMutability": "nonpayable",
      "type": "function"
    },
    {
      "inputs": [
        {
          "internalType": "uint256",
          "name": "tokenId",
          "type": "uint256"
        }
      ],
      "name": "getApproved",
      "outputs": [
        {
          "internalType": "address",
          "name": "",
          "type": "address"
        }
      ],
      "stateMutability": "view",
      "type": "function"
    },
    {
      "inputs": [
        {
          "internalType": "address",
          "name": "owner",
          "type": "address"
        },
        {
          "internalType": "address",
          "name": "operator",
          "type": "address"
        }
      ],
      "name": "isApprovedForAll",
      "outputs": [
        {
          "internalType": "bool",
          "name": "",
          "type": "bool"
        }
      ],
      "stateMutability": "view",
      "type": "function"
    },
    {
      "inputs": [],
      "name": "name",
      "outputs": [
        {
          "internalType": "string",
          "name": "",
          "type": "string"
        }
      ],
      "stateMutability": "view",
      "type": "function"
    },
    {
      "inputs": [
        {
          "internalType": "uint256",
          "name": "tokenId",
          "type": "uint256"
        }
      ],
      "name": "ownerOf",
      "outputs": [
        {
          "internalType": "address",
          "name": "",
          "type": "address"
        }
      ],
      "stateMutability": "view",
      "type": "function"
    },
    {
      "inputs": [
        {
          "internalType": "address",
          "name": "from",
          "type": "address"
        },
        {
          "internalType": "address",
          "name": "to",
          "type": "address"
        },
        {
          "internalType": "uint256",
          "name": "tokenId",
          "type": "uint256"
        }
      ],
      "name": "safeTransferFrom",
      "outputs": [],
      "stateMutability": "nonpayable",
      "type": "function"
    },
    {
      "inputs": [
        {
          "internalType": "address",
          "name": "from",
          "type": "address"
        },
        {
          "internalType": "address",
          "name": "to",
          "type": "address"
        },
        {
          "internalType": "uint256",
          "name": "tokenId",
          "type": "uint256"
        },
        {
          "internalType": "bytes",
          "name": "_data",
          "type": "bytes"
        }
      ],
      "name": "safeTransferFrom",
      "outputs": [],
      "stateMutability": "nonpayable",
      "type": "function"
    },
    {
      "inputs": [
        {
          "internalType": "address",
          "name": "operator",
          "type": "address"
        },
        {
          "internalType": "bool",
          "name": "approved",
          "type": "bool"
        }
      ],
      "name": "setApprovalForAll",
      "outputs": [],
      "stateMutability": "nonpayable",
      "type": "function"
    },
    {
      "inputs": [
        {
          "internalType": "bytes4",
          "name": "interfaceId",
          "type": "bytes4"
        }
      ],
      "name": "supportsInterface",
      "outputs": [
        {
          "internalType": "bool",
          "name": "",
          "type": "bool"
        }
      ],
      "stateMutability": "view",
      "type": "function"
    },
    {
      "inputs": [],
      "name": "symbol",
      "outputs": [
        {
          "internalType": "string",
          "name": "",
          "type": "string"
        }
      ],
      "stateMutability": "view",
      "type": "function"
    },
    {
      "inputs": [
        {
          "internalType": "uint256",
          "name": "tokenId",
          "type": "uint256"
        }
      ],
      "name": "tokenURI",
      "outputs": [
        {
          "internalType": "string",
          "name": "",
          "type": "string"
        }
      ],
      "stateMutability": "view",
      "type": "function"
    },
    {
      "inputs": [
        {
          "internalType": "address",
          "name": "from",
          "type": "address"
        },
        {
          "internalType": "address",
          "name": "to",
          "type": "address"
        },
        {
          "internalType": "uint256",
          "name": "tokenId",
          "type": "uint256"
        }
      ],
      "name": "transferFrom",
      "outputs": [],
      "stateMutability": "nonpayable",
      "type": "function"
    }
  ],
  "bytecode": "0x60806040523480156200001157600080fd5b5060405162002f5738038062002f57833981810160405281019062000037919062000239565b6040518060400160405280600f81526020017f4d657461526f636b436f6c6c65637400000000000000000000000000000000008152506040518060400160405280600881526020017f4d657461526f636b0000000000000000000000000000000000000000000000008152508160009080519060200190620000bb9291906200011f565b508060019080519060200190620000d49291906200011f565b50505080600860006101000a81548173ffffffffffffffffffffffffffffffffffffffff021916908373ffffffffffffffffffffffffffffffffffffffff16021790555050620002d0565b8280546200012d906200029a565b90600052602060002090601f0160209004810192826200015157600085556200019d565b82601f106200016c57805160ff19168380011785556200019d565b828001600101855582156200019d579182015b828111156200019c5782518255916020019190600101906200017f565b5b509050620001ac9190620001b0565b5090565b5b80821115620001cb576000816000905550600101620001b1565b5090565b600080fd5b600073ffffffffffffffffffffffffffffffffffffffff82169050919050565b60006200020182620001d4565b9050919050565b6200021381620001f4565b81146200021f57600080fd5b50565b600081519050620002338162000208565b92915050565b600060208284031215620002525762000251620001cf565b5b6000620002628482850162000222565b91505092915050565b7f4e487b7100000000000000000000000000000000000000000000000000000000600052602260045260246000fd5b60006002820490506001821680620002b357607f821691505b60208210811415620002ca57620002c96200026b565b5b50919050565b612c7780620002e06000396000f3fe608060405234801561001057600080fd5b50600436106100ea5760003560e01c806370a082311161008c578063a561403311610066578063a56140331461025b578063b88d4fde1461028b578063c87b56dd146102a7578063e985e9c5146102d7576100ea565b806370a08231146101f157806395d89b4114610221578063a22cb4651461023f576100ea565b8063095ea7b3116100c8578063095ea7b31461016d57806323b872dd1461018957806342842e0e146101a55780636352211e146101c1576100ea565b806301ffc9a7146100ef57806306fdde031461011f578063081812fc1461013d575b600080fd5b610109600480360381019061010491906119d9565b610307565b6040516101169190611a21565b60405180910390f35b6101276103e9565b6040516101349190611ad5565b60405180910390f35b61015760048036038101906101529190611b2d565b61047b565b6040516101649190611b9b565b60405180910390f35b61018760048036038101906101829190611be2565b610500565b005b6101a3600480360381019061019e9190611c22565b610618565b005b6101bf60048036038101906101ba9190611c22565b610678565b005b6101db60048036038101906101d69190611b2d565b610698565b6040516101e89190611b9b565b60405180910390f35b61020b60048036038101906102069190611c75565b61074a565b6040516102189190611cb1565b60405180910390f35b610229610802565b6040516102369190611ad5565b60405180910390f35b61025960048036038101906102549190611cf8565b610894565b005b61027560048036038101906102709190611e6d565b6108aa565b6040516102829190611cb1565b60405180910390f35b6102a560048036038101906102a09190611f6a565b61090f565b005b6102c160048036038101906102bc9190611b2d565b610971565b6040516102ce9190611ad5565b60405180910390f35b6102f160048036038101906102ec9190611fed565b610ac3565b6040516102fe9190611a21565b60405180910390f35b60007f80ac58cd000000000000000000000000000000000000000000000000000000007bffffffffffffffffffffffffffffffffffffffffffffffffffffffff1916827bffffffffffffffffffffffffffffffffffffffffffffffffffffffff191614806103d257507f5b5e139f000000000000000000000000000000000000000000000000000000007bffffffffffffffffffffffffffffffffffffffffffffffffffffffff1916827bffffffffffffffffffffffffffffffffffffffffffffffffffffffff1916145b806103e257506103e182610b57565b5b9050919050565b6060600080546103f89061205c565b80601f01602080910402602001604051908101604052809291908181526020018280546104249061205c565b80156104715780601f1061044657610100808354040283529160200191610471565b820191906000526020600020905b81548152906001019060200180831161045457829003601f168201915b5050505050905090565b600061048682610bc1565b6104c5576040517f08c379a00000000000000000000000000000000000000000000000000000000081526004016104bc90612100565b60405180910390fd5b6004600083815260200190815260200160002060009054906101000a900473ffffffffffffffffffffffffffffffffffffffff169050919050565b600061050b82610698565b90508073ffffffffffffffffffffffffffffffffffffffff168373ffffffffffffffffffffffffffffffffffffffff16141561057c576040517f08c379a000000000000000000000000000000000000000000000000000000000815260040161057390612192565b60405180910390fd5b8073ffffffffffffffffffffffffffffffffffffffff1661059b610c2d565b73ffffffffffffffffffffffffffffffffffffffff1614806105ca57506105c9816105c4610c2d565b610ac3565b5b610609576040517f08c379a000000000000000000000000000000000000000000000000000000000815260040161060090612224565b60405180910390fd5b6106138383610c35565b505050565b610629610623610c2d565b82610cee565b610668576040517f08c379a000000000000000000000000000000000000000000000000000000000815260040161065f906122b6565b60405180910390fd5b610673838383610dcc565b505050565b6106938383836040518060200160405280600081525061090f565b505050565b6000806002600084815260200190815260200160002060009054906101000a900473ffffffffffffffffffffffffffffffffffffffff169050600073ffffffffffffffffffffffffffffffffffffffff168173ffffffffffffffffffffffffffffffffffffffff161415610741576040517f08c379a000000000000000000000000000000000000000000000000000000000815260040161073890612348565b60405180910390fd5b80915050919050565b60008073ffffffffffffffffffffffffffffffffffffffff168273ffffffffffffffffffffffffffffffffffffffff1614156107bb576040517f08c379a00000000000000000000000000000000000000000000000000000000081526004016107b2906123da565b60405180910390fd5b600360008373ffffffffffffffffffffffffffffffffffffffff1673ffffffffffffffffffffffffffffffffffffffff168152602001908152602001600020549050919050565b6060600180546108119061205c565b80601f016020809104026020016040519081016040528092919081815260200182805461083d9061205c565b801561088a5780601f1061085f5761010080835404028352916020019161088a565b820191906000526020600020905b81548152906001019060200180831161086d57829003601f168201915b5050505050905090565b6108a661089f610c2d565b8383611033565b5050565b60006108b660076111a0565b60006108c260076111b6565b90506108ce84826111c4565b6108d881846111e2565b610905600860009054906101000a900473ffffffffffffffffffffffffffffffffffffffff166001610894565b8091505092915050565b61092061091a610c2d565b83610cee565b61095f576040517f08c379a0000000000000000000000000000000000000000000000000000000008152600401610956906122b6565b60405180910390fd5b61096b84848484611256565b50505050565b606061097c82610bc1565b6109bb576040517f08c379a00000000000000000000000000000000000000000000000000000000081526004016109b29061246c565b60405180910390fd5b60006006600084815260200190815260200160002080546109db9061205c565b80601f0160208091040260200160405190810160405280929190818152602001828054610a079061205c565b8015610a545780601f10610a2957610100808354040283529160200191610a54565b820191906000526020600020905b815481529060010190602001808311610a3757829003601f168201915b505050505090506000610a656112b2565b9050600081511415610a7b578192505050610abe565b600082511115610ab0578082604051602001610a989291906124c8565b60405160208183030381529060405292505050610abe565b610ab9846112c9565b925050505b919050565b6000600560008473ffffffffffffffffffffffffffffffffffffffff1673ffffffffffffffffffffffffffffffffffffffff16815260200190815260200160002060008373ffffffffffffffffffffffffffffffffffffffff1673ffffffffffffffffffffffffffffffffffffffff16815260200190815260200160002060009054906101000a900460ff16905092915050565b60007f01ffc9a7000000000000000000000000000000000000000000000000000000007bffffffffffffffffffffffffffffffffffffffffffffffffffffffff1916827bffffffffffffffffffffffffffffffffffffffffffffffffffffffff1916149050919050565b60008073ffffffffffffffffffffffffffffffffffffffff166002600084815260200190815260200160002060009054906101000a900473ffffffffffffffffffffffffffffffffffffffff1673ffffffffffffffffffffffffffffffffffffffff1614159050919050565b600033905090565b816004600083815260200190815260200160002060006101000a81548173ffffffffffffffffffffffffffffffffffffffff021916908373ffffffffffffffffffffffffffffffffffffffff160217905550808273ffffffffffffffffffffffffffffffffffffffff16610ca883610698565b73ffffffffffffffffffffffffffffffffffffffff167f8c5be1e5ebec7d5bd14f71427d1e84f3dd0314c0f7b2291e5b200ac8c7c3b92560405160405180910390a45050565b6000610cf982610bc1565b610d38576040517f08c379a0000000000000000000000000000000000000000000000000000000008152600401610d2f9061255e565b60405180910390fd5b6000610d4383610698565b90508073ffffffffffffffffffffffffffffffffffffffff168473ffffffffffffffffffffffffffffffffffffffff161480610db257508373ffffffffffffffffffffffffffffffffffffffff16610d9a8461047b565b73ffffffffffffffffffffffffffffffffffffffff16145b80610dc35750610dc28185610ac3565b5b91505092915050565b8273ffffffffffffffffffffffffffffffffffffffff16610dec82610698565b73ffffffffffffffffffffffffffffffffffffffff1614610e42576040517f08c379a0000000000000000000000000000000000000000000000000000000008152600401610e39906125f0565b60405180910390fd5b600073ffffffffffffffffffffffffffffffffffffffff168273ffffffffffffffffffffffffffffffffffffffff161415610eb2576040517f08c379a0000000000000000000000000000000000000000000000000000000008152600401610ea990612682565b60405180910390fd5b610ebd838383611370565b610ec8600082610c35565b6001600360008573ffffffffffffffffffffffffffffffffffffffff1673ffffffffffffffffffffffffffffffffffffffff1681526020019081526020016000206000828254610f1891906126d1565b925050819055506001600360008473ffffffffffffffffffffffffffffffffffffffff1673ffffffffffffffffffffffffffffffffffffffff1681526020019081526020016000206000828254610f6f9190612705565b92505081905550816002600083815260200190815260200160002060006101000a81548173ffffffffffffffffffffffffffffffffffffffff021916908373ffffffffffffffffffffffffffffffffffffffff160217905550808273ffffffffffffffffffffffffffffffffffffffff168473ffffffffffffffffffffffffffffffffffffffff167fddf252ad1be2c89b69c2b068fc378daa952ba7f163c4a11628f55a4df523b3ef60405160405180910390a461102e838383611375565b505050565b8173ffffffffffffffffffffffffffffffffffffffff168373ffffffffffffffffffffffffffffffffffffffff1614156110a2576040517f08c379a0000000000000000000000000000000000000000000000000000000008152600401611099906127a7565b60405180910390fd5b80600560008573ffffffffffffffffffffffffffffffffffffffff1673ffffffffffffffffffffffffffffffffffffffff16815260200190815260200160002060008473ffffffffffffffffffffffffffffffffffffffff1673ffffffffffffffffffffffffffffffffffffffff16815260200190815260200160002060006101000a81548160ff0219169083151502179055508173ffffffffffffffffffffffffffffffffffffffff168373ffffffffffffffffffffffffffffffffffffffff167f17307eab39ab6107e8899845ad3d59bd9653f200f220920489ca2b5937696c31836040516111939190611a21565b60405180910390a3505050565b6001816000016000828254019250508190555050565b600081600001549050919050565b6111de82826040518060200160405280600081525061137a565b5050565b6111eb82610bc1565b61122a576040517f08c379a000000000000000000000000000000000000000000000000000000000815260040161122190612839565b60405180910390fd5b806006600084815260200190815260200160002090805190602001906112519291906118ca565b505050565b611261848484610dcc565b61126d848484846113d5565b6112ac576040517f08c379a00000000000000000000000000000000000000000000000000000000081526004016112a3906128cb565b60405180910390fd5b50505050565b606060405180602001604052806000815250905090565b60606112d482610bc1565b611313576040517f08c379a000000000000000000000000000000000000000000000000000000000815260040161130a9061295d565b60405180910390fd5b600061131d6112b2565b9050600081511161133d5760405180602001604052806000815250611368565b806113478461156c565b6040516020016113589291906124c8565b6040516020818303038152906040525b915050919050565b505050565b505050565b61138483836116cd565b61139160008484846113d5565b6113d0576040517f08c379a00000000000000000000000000000000000000000000000000000000081526004016113c7906128cb565b60405180910390fd5b505050565b60006113f68473ffffffffffffffffffffffffffffffffffffffff166118a7565b1561155f578373ffffffffffffffffffffffffffffffffffffffff1663150b7a0261141f610c2d565b8786866040518563ffffffff1660e01b815260040161144194939291906129d2565b602060405180830381600087803b15801561145b57600080fd5b505af192505050801561148c57506040513d601f19601f820116820180604052508101906114899190612a33565b60015b61150f573d80600081146114bc576040519150601f19603f3d011682016040523d82523d6000602084013e6114c1565b606091505b50600081511415611507576040517f08c379a00000000000000000000000000000000000000000000000000000000081526004016114fe906128cb565b60405180910390fd5b805181602001fd5b63150b7a0260e01b7bffffffffffffffffffffffffffffffffffffffffffffffffffffffff1916817bffffffffffffffffffffffffffffffffffffffffffffffffffffffff191614915050611564565b600190505b949350505050565b606060008214156115b4576040518060400160405280600181526020017f300000000000000000000000000000000000000000000000000000000000000081525090506116c8565b600082905060005b600082146115e65780806115cf90612a60565b915050600a826115df9190612ad8565b91506115bc565b60008167ffffffffffffffff81111561160257611601611d42565b5b6040519080825280601f01601f1916602001820160405280156116345781602001600182028036833780820191505090505b5090505b600085146116c15760018261164d91906126d1565b9150600a8561165c9190612b09565b60306116689190612705565b60f81b81838151811061167e5761167d612b3a565b5b60200101907effffffffffffffffffffffffffffffffffffffffffffffffffffffffffffff1916908160001a905350600a856116ba9190612ad8565b9450611638565b8093505050505b919050565b600073ffffffffffffffffffffffffffffffffffffffff168273ffffffffffffffffffffffffffffffffffffffff16141561173d576040517f08c379a000000000000000000000000000000000000000000000000000000000815260040161173490612bb5565b60405180910390fd5b61174681610bc1565b15611786576040517f08c379a000000000000000000000000000000000000000000000000000000000815260040161177d90612c21565b60405180910390fd5b61179260008383611370565b6001600360008473ffffffffffffffffffffffffffffffffffffffff1673ffffffffffffffffffffffffffffffffffffffff16815260200190815260200160002060008282546117e29190612705565b92505081905550816002600083815260200190815260200160002060006101000a81548173ffffffffffffffffffffffffffffffffffffffff021916908373ffffffffffffffffffffffffffffffffffffffff160217905550808273ffffffffffffffffffffffffffffffffffffffff16600073ffffffffffffffffffffffffffffffffffffffff167fddf252ad1be2c89b69c2b068fc378daa952ba7f163c4a11628f55a4df523b3ef60405160405180910390a46118a360008383611375565b5050565b6000808273ffffffffffffffffffffffffffffffffffffffff163b119050919050565b8280546118d69061205c565b90600052602060002090601f0160209004810192826118f8576000855561193f565b82601f1061191157805160ff191683800117855561193f565b8280016001018555821561193f579182015b8281111561193e578251825591602001919060010190611923565b5b50905061194c9190611950565b5090565b5b80821115611969576000816000905550600101611951565b5090565b6000604051905090565b600080fd5b600080fd5b60007fffffffff0000000000000000000000000000000000000000000000000000000082169050919050565b6119b681611981565b81146119c157600080fd5b50565b6000813590506119d3816119ad565b92915050565b6000602082840312156119ef576119ee611977565b5b60006119fd848285016119c4565b91505092915050565b60008115159050919050565b611a1b81611a06565b82525050565b6000602082019050611a366000830184611a12565b92915050565b600081519050919050565b600082825260208201905092915050565b60005b83811015611a76578082015181840152602081019050611a5b565b83811115611a85576000848401525b50505050565b6000601f19601f8301169050919050565b6000611aa782611a3c565b611ab18185611a47565b9350611ac1818560208601611a58565b611aca81611a8b565b840191505092915050565b60006020820190508181036000830152611aef8184611a9c565b905092915050565b6000819050919050565b611b0a81611af7565b8114611b1557600080fd5b50565b600081359050611b2781611b01565b92915050565b600060208284031215611b4357611b42611977565b5b6000611b5184828501611b18565b91505092915050565b600073ffffffffffffffffffffffffffffffffffffffff82169050919050565b6000611b8582611b5a565b9050919050565b611b9581611b7a565b82525050565b6000602082019050611bb06000830184611b8c565b92915050565b611bbf81611b7a565b8114611bca57600080fd5b50565b600081359050611bdc81611bb6565b92915050565b60008060408385031215611bf957611bf8611977565b5b6000611c0785828601611bcd565b9250506020611c1885828601611b18565b9150509250929050565b600080600060608486031215611c3b57611c3a611977565b5b6000611c4986828701611bcd565b9350506020611c5a86828701611bcd565b9250506040611c6b86828701611b18565b9150509250925092565b600060208284031215611c8b57611c8a611977565b5b6000611c9984828501611bcd565b91505092915050565b611cab81611af7565b82525050565b6000602082019050611cc66000830184611ca2565b92915050565b611cd581611a06565b8114611ce057600080fd5b50565b600081359050611cf281611ccc565b92915050565b60008060408385031215611d0f57611d0e611977565b5b6000611d1d85828601611bcd565b9250506020611d2e85828601611ce3565b9150509250929050565b600080fd5b600080fd5b7f4e487b7100000000000000000000000000000000000000000000000000000000600052604160045260246000fd5b611d7a82611a8b565b810181811067ffffffffffffffff82111715611d9957611d98611d42565b5b80604052505050565b6000611dac61196d565b9050611db88282611d71565b919050565b600067ffffffffffffffff821115611dd857611dd7611d42565b5b611de182611a8b565b9050602081019050919050565b82818337600083830152505050565b6000611e10611e0b84611dbd565b611da2565b905082815260208101848484011115611e2c57611e2b611d3d565b5b611e37848285611dee565b509392505050565b600082601f830112611e5457611e53611d38565b5b8135611e64848260208601611dfd565b91505092915050565b60008060408385031215611e8457611e83611977565b5b6000611e9285828601611bcd565b925050602083013567ffffffffffffffff811115611eb357611eb261197c565b5b611ebf85828601611e3f565b9150509250929050565b600067ffffffffffffffff821115611ee457611ee3611d42565b5b611eed82611a8b565b9050602081019050919050565b6000611f0d611f0884611ec9565b611da2565b905082815260208101848484011115611f2957611f28611d3d565b5b611f34848285611dee565b509392505050565b600082601f830112611f5157611f50611d38565b5b8135611f61848260208601611efa565b91505092915050565b60008060008060808587031215611f8457611f83611977565b5b6000611f9287828801611bcd565b9450506020611fa387828801611bcd565b9350506040611fb487828801611b18565b925050606085013567ffffffffffffffff811115611fd557611fd461197c565b5b611fe187828801611f3c565b91505092959194509250565b6000806040838503121561200457612003611977565b5b600061201285828601611bcd565b925050602061202385828601611bcd565b9150509250929050565b7f4e487b7100000000000000000000000000000000000000000000000000000000600052602260045260246000fd5b6000600282049050600182168061207457607f821691505b602082108114156120885761208761202d565b5b50919050565b7f4552433732313a20617070726f76656420717565727920666f72206e6f6e657860008201527f697374656e7420746f6b656e0000000000000000000000000000000000000000602082015250565b60006120ea602c83611a47565b91506120f58261208e565b604082019050919050565b60006020820190508181036000830152612119816120dd565b9050919050565b7f4552433732313a20617070726f76616c20746f2063757272656e74206f776e6560008201527f7200000000000000000000000000000000000000000000000000000000000000602082015250565b600061217c602183611a47565b915061218782612120565b604082019050919050565b600060208201905081810360008301526121ab8161216f565b9050919050565b7f4552433732313a20617070726f76652063616c6c6572206973206e6f74206f7760008201527f6e6572206e6f7220617070726f76656420666f7220616c6c0000000000000000602082015250565b600061220e603883611a47565b9150612219826121b2565b604082019050919050565b6000602082019050818103600083015261223d81612201565b9050919050565b7f4552433732313a207472616e736665722063616c6c6572206973206e6f74206f60008201527f776e6572206e6f7220617070726f766564000000000000000000000000000000602082015250565b60006122a0603183611a47565b91506122ab82612244565b604082019050919050565b600060208201905081810360008301526122cf81612293565b9050919050565b7f4552433732313a206f776e657220717565727920666f72206e6f6e657869737460008201527f656e7420746f6b656e0000000000000000000000000000000000000000000000602082015250565b6000612332602983611a47565b915061233d826122d6565b604082019050919050565b6000602082019050818103600083015261236181612325565b9050919050565b7f4552433732313a2062616c616e636520717565727920666f7220746865207a6560008201527f726f206164647265737300000000000000000000000000000000000000000000602082015250565b60006123c4602a83611a47565b91506123cf82612368565b604082019050919050565b600060208201905081810360008301526123f3816123b7565b9050919050565b7f45524337323155524953746f726167653a2055524920717565727920666f722060008201527f6e6f6e6578697374656e7420746f6b656e000000000000000000000000000000602082015250565b6000612456603183611a47565b9150612461826123fa565b604082019050919050565b6000602082019050818103600083015261248581612449565b9050919050565b600081905092915050565b60006124a282611a3c565b6124ac818561248c565b93506124bc818560208601611a58565b80840191505092915050565b60006124d48285612497565b91506124e08284612497565b91508190509392505050565b7f4552433732313a206f70657261746f7220717565727920666f72206e6f6e657860008201527f697374656e7420746f6b656e0000000000000000000000000000000000000000602082015250565b6000612548602c83611a47565b9150612553826124ec565b604082019050919050565b600060208201905081810360008301526125778161253b565b9050919050565b7f4552433732313a207472616e736665722066726f6d20696e636f72726563742060008201527f6f776e6572000000000000000000000000000000000000000000000000000000602082015250565b60006125da602583611a47565b91506125e58261257e565b604082019050919050565b60006020820190508181036000830152612609816125cd565b9050919050565b7f4552433732313a207472616e7366657220746f20746865207a65726f2061646460008201527f7265737300000000000000000000000000000000000000000000000000000000602082015250565b600061266c602483611a47565b915061267782612610565b604082019050919050565b6000602082019050818103600083015261269b8161265f565b9050919050565b7f4e487b7100000000000000000000000000000000000000000000000000000000600052601160045260246000fd5b60006126dc82611af7565b91506126e783611af7565b9250828210156126fa576126f96126a2565b5b828203905092915050565b600061271082611af7565b915061271b83611af7565b9250827fffffffffffffffffffffffffffffffffffffffffffffffffffffffffffffffff038211156127505761274f6126a2565b5b828201905092915050565b7f4552433732313a20617070726f766520746f2063616c6c657200000000000000600082015250565b6000612791601983611a47565b915061279c8261275b565b602082019050919050565b600060208201905081810360008301526127c081612784565b9050919050565b7f45524337323155524953746f726167653a2055524920736574206f66206e6f6e60008201527f6578697374656e7420746f6b656e000000000000000000000000000000000000602082015250565b6000612823602e83611a47565b915061282e826127c7565b604082019050919050565b6000602082019050818103600083015261285281612816565b9050919050565b7f4552433732313a207472616e7366657220746f206e6f6e20455243373231526560008201527f63656976657220696d706c656d656e7465720000000000000000000000000000602082015250565b60006128b5603283611a47565b91506128c082612859565b604082019050919050565b600060208201905081810360008301526128e4816128a8565b9050919050565b7f4552433732314d657461646174613a2055524920717565727920666f72206e6f60008201527f6e6578697374656e7420746f6b656e0000000000000000000000000000000000602082015250565b6000612947602f83611a47565b9150612952826128eb565b604082019050919050565b600060208201905081810360008301526129768161293a565b9050919050565b600081519050919050565b600082825260208201905092915050565b60006129a48261297d565b6129ae8185612988565b93506129be818560208601611a58565b6129c781611a8b565b840191505092915050565b60006080820190506129e76000830187611b8c565b6129f46020830186611b8c565b612a016040830185611ca2565b8181036060830152612a138184612999565b905095945050505050565b600081519050612a2d816119ad565b92915050565b600060208284031215612a4957612a48611977565b5b6000612a5784828501612a1e565b91505092915050565b6000612a6b82611af7565b91507fffffffffffffffffffffffffffffffffffffffffffffffffffffffffffffffff821415612a9e57612a9d6126a2565b5b600182019050919050565b7f4e487b7100000000000000000000000000000000000000000000000000000000600052601260045260246000fd5b6000612ae382611af7565b9150612aee83611af7565b925082612afe57612afd612aa9565b5b828204905092915050565b6000612b1482611af7565b9150612b1f83611af7565b925082612b2f57612b2e612aa9565b5b828206905092915050565b7f4e487b7100000000000000000000000000000000000000000000000000000000600052603260045260246000fd5b7f4552433732313a206d696e7420746f20746865207a65726f2061646472657373600082015250565b6000612b9f602083611a47565b9150612baa82612b69565b602082019050919050565b60006020820190508181036000830152612bce81612b92565b9050919050565b7f4552433732313a20746f6b656e20616c7265616479206d696e74656400000000600082015250565b6000612c0b601c83611a47565b9150612c1682612bd5565b602082019050919050565b60006020820190508181036000830152612c3a81612bfe565b905091905056fea2646970667358221220c6925c9956797202df882b3687ed96dfeb15c98a38725bd07f703e86c01da5e864736f6c63430008090033",
  "linkReferences": {},
  "deployedLinkReferences": {}
}