{
  "_format": "hh-sol-artifact-1",
  "contractName": "Marketplace",
  "sourceName": "contracts/Marketplace.sol",
  "abi": [
    {
      "inputs": [],
      "stateMutability": "nonpayable",
      "type": "constructor"
    },
    {
      "anonymous": false,
      "inputs": [
        {
          "indexed": false,
          "internalType": "uint256",
          "name": "price",
          "type": "uint256"
        },
        {
          "indexed": true,
          "internalType": "uint256",
          "name": "itemId",
          "type": "uint256"
        },
        {
          "indexed": true,
          "internalType": "uint256",
          "name": "tokenId",
          "type": "uint256"
        },
        {
          "indexed": true,
          "internalType": "address",
          "name": "nftContract",
          "type": "address"
        },
        {
          "indexed": false,
          "internalType": "address",
          "name": "seller",
          "type": "address"
        },
        {
          "indexed": false,
          "internalType": "address",
          "name": "owner",
          "type": "address"
        }
      ],
      "name": "MarketItemCreated",
      "type": "event"
    },
    {
      "anonymous": false,
      "inputs": [
        {
          "indexed": false,
          "internalType": "uint256",
          "name": "price",
          "type": "uint256"
        },
        {
          "indexed": true,
          "internalType": "uint256",
          "name": "itemId",
          "type": "uint256"
        },
        {
          "indexed": true,
          "internalType": "uint256",
          "name": "tokenId",
          "type": "uint256"
        },
        {
          "indexed": true,
          "internalType": "address",
          "name": "nftContract",
          "type": "address"
        },
        {
          "indexed": false,
          "internalType": "address",
          "name": "seller",
          "type": "address"
        },
        {
          "indexed": false,
          "internalType": "address",
          "name": "buyer",
          "type": "address"
        }
      ],
      "name": "MarketItemSold",
      "type": "event"
    },
    {
      "inputs": [
        {
          "internalType": "address",
          "name": "nftContract",
          "type": "address"
        },
        {
          "internalType": "uint256",
          "name": "tokenId",
          "type": "uint256"
        },
        {
          "internalType": "uint256",
          "name": "price",
          "type": "uint256"
        }
      ],
      "name": "createMarketItem",
      "outputs": [],
      "stateMutability": "payable",
      "type": "function"
    },
    {
      "inputs": [
        {
          "internalType": "address",
          "name": "nftContract",
          "type": "address"
        },
        {
          "internalType": "uint256",
          "name": "itemId",
          "type": "uint256"
        }
      ],
      "name": "createMarketSale",
      "outputs": [],
      "stateMutability": "payable",
      "type": "function"
    },
    {
      "inputs": [],
      "name": "getAllMarketItems",
      "outputs": [
        {
          "components": [
            {
              "internalType": "uint256",
              "name": "itemId",
              "type": "uint256"
            },
            {
              "internalType": "uint256",
              "name": "tokenId",
              "type": "uint256"
            },
            {
              "internalType": "uint256",
              "name": "price",
              "type": "uint256"
            },
            {
              "internalType": "bool",
              "name": "isSold",
              "type": "bool"
            },
            {
              "internalType": "address payable",
              "name": "seller",
              "type": "address"
            },
            {
              "internalType": "address payable",
              "name": "owner",
              "type": "address"
            },
            {
              "internalType": "address",
              "name": "nftContract",
              "type": "address"
            }
          ],
          "internalType": "struct Marketplace.MarketItem[]",
          "name": "",
          "type": "tuple[]"
        }
      ],
      "stateMutability": "view",
      "type": "function"
    },
    {
      "inputs": [],
      "name": "getListingCommision",
      "outputs": [
        {
          "internalType": "uint256",
          "name": "",
          "type": "uint256"
        }
      ],
      "stateMutability": "view",
      "type": "function"
    },
    {
      "inputs": [],
      "name": "getMyNFTs",
      "outputs": [
        {
          "components": [
            {
              "internalType": "uint256",
              "name": "itemId",
              "type": "uint256"
            },
            {
              "internalType": "uint256",
              "name": "tokenId",
              "type": "uint256"
            },
            {
              "internalType": "uint256",
              "name": "price",
              "type": "uint256"
            },
            {
              "internalType": "bool",
              "name": "isSold",
              "type": "bool"
            },
            {
              "internalType": "address payable",
              "name": "seller",
              "type": "address"
            },
            {
              "internalType": "address payable",
              "name": "owner",
              "type": "address"
            },
            {
              "internalType": "address",
              "name": "nftContract",
              "type": "address"
            }
          ],
          "internalType": "struct Marketplace.MarketItem[]",
          "name": "",
          "type": "tuple[]"
        }
      ],
      "stateMutability": "view",
      "type": "function"
    },
    {
      "inputs": [
        {
          "internalType": "uint256",
          "name": "itemId",
          "type": "uint256"
        }
      ],
      "name": "getNFT",
      "outputs": [
        {
          "components": [
            {
              "internalType": "uint256",
              "name": "itemId",
              "type": "uint256"
            },
            {
              "internalType": "uint256",
              "name": "tokenId",
              "type": "uint256"
            },
            {
              "internalType": "uint256",
              "name": "price",
              "type": "uint256"
            },
            {
              "internalType": "bool",
              "name": "isSold",
              "type": "bool"
            },
            {
              "internalType": "address payable",
              "name": "seller",
              "type": "address"
            },
            {
              "internalType": "address payable",
              "name": "owner",
              "type": "address"
            },
            {
              "internalType": "address",
              "name": "nftContract",
              "type": "address"
            }
          ],
          "internalType": "struct Marketplace.MarketItem",
          "name": "",
          "type": "tuple"
        }
      ],
      "stateMutability": "view",
      "type": "function"
    },
    {
      "inputs": [],
      "name": "getNFTsCreated",
      "outputs": [
        {
          "components": [
            {
              "internalType": "uint256",
              "name": "itemId",
              "type": "uint256"
            },
            {
              "internalType": "uint256",
              "name": "tokenId",
              "type": "uint256"
            },
            {
              "internalType": "uint256",
              "name": "price",
              "type": "uint256"
            },
            {
              "internalType": "bool",
              "name": "isSold",
              "type": "bool"
            },
            {
              "internalType": "address payable",
              "name": "seller",
              "type": "address"
            },
            {
              "internalType": "address payable",
              "name": "owner",
              "type": "address"
            },
            {
              "internalType": "address",
              "name": "nftContract",
              "type": "address"
            }
          ],
          "internalType": "struct Marketplace.MarketItem[]",
          "name": "",
          "type": "tuple[]"
        }
      ],
      "stateMutability": "view",
      "type": "function"
    }
  ],
  "bytecode": "0x608060405266470de4df82000060045534801561001b57600080fd5b50600160008190555033600360006101000a81548173ffffffffffffffffffffffffffffffffffffffff021916908373ffffffffffffffffffffffffffffffffffffffff160217905550611bf7806100746000396000f3fe6080604052600436106100705760003560e01c8063629cb2e41161004e578063629cb2e4146100f95780636a8b52ae14610124578063c23b139e1461014f578063f16d376c1461016b57610070565b8063236dd8de14610075578063576f7ea7146100a057806358eb2df5146100dd575b600080fd5b34801561008157600080fd5b5061008a610196565b604051610097919061152f565b60405180910390f35b3480156100ac57600080fd5b506100c760048036038101906100c29190611582565b6104de565b6040516100d4919061163d565b60405180910390f35b6100f760048036038101906100f29190611684565b6106b7565b005b34801561010557600080fd5b5061010e6109da565b60405161011b919061152f565b60405180910390f35b34801561013057600080fd5b50610139610d22565b60405161014691906116e6565b60405180910390f35b61016960048036038101906101649190611701565b610d2c565b005b34801561017757600080fd5b50610180610ff2565b60405161018d919061152f565b60405180910390f35b606060006101a460016112b7565b905060008060005b8381101561024d573373ffffffffffffffffffffffffffffffffffffffff16600560006001846101dc9190611770565b815260200190815260200160002060030160019054906101000a900473ffffffffffffffffffffffffffffffffffffffff1673ffffffffffffffffffffffffffffffffffffffff16141561023a576001836102379190611770565b92505b8080610245906117c6565b9150506101ac565b5060008267ffffffffffffffff81111561026a5761026961180f565b5b6040519080825280602002602001820160405280156102a357816020015b6102906112db565b8152602001906001900390816102885790505b50905060005b848110156104d3573373ffffffffffffffffffffffffffffffffffffffff16600560006001846102d99190611770565b815260200190815260200160002060030160019054906101000a900473ffffffffffffffffffffffffffffffffffffffff1673ffffffffffffffffffffffffffffffffffffffff1614156104c05760006001826103369190611770565b9050600560008281526020019081526020016000206040518060e00160405290816000820154815260200160018201548152602001600282015481526020016003820160009054906101000a900460ff161515151581526020016003820160019054906101000a900473ffffffffffffffffffffffffffffffffffffffff1673ffffffffffffffffffffffffffffffffffffffff1673ffffffffffffffffffffffffffffffffffffffff1681526020016004820160009054906101000a900473ffffffffffffffffffffffffffffffffffffffff1673ffffffffffffffffffffffffffffffffffffffff1673ffffffffffffffffffffffffffffffffffffffff1681526020016005820160009054906101000a900473ffffffffffffffffffffffffffffffffffffffff1673ffffffffffffffffffffffffffffffffffffffff1673ffffffffffffffffffffffffffffffffffffffff16815250508385815181106104a4576104a361183e565b5b60200260200101819052506001846104bc9190611770565b9350505b80806104cb906117c6565b9150506102a9565b508094505050505090565b6104e66112db565b60006104f260016112b7565b90506104fc6112db565b60005b828110156106ac5784600560006001846105199190611770565b815260200190815260200160002060000154141561069957600560006001836105429190611770565b81526020019081526020016000206040518060e00160405290816000820154815260200160018201548152602001600282015481526020016003820160009054906101000a900460ff161515151581526020016003820160019054906101000a900473ffffffffffffffffffffffffffffffffffffffff1673ffffffffffffffffffffffffffffffffffffffff1673ffffffffffffffffffffffffffffffffffffffff1681526020016004820160009054906101000a900473ffffffffffffffffffffffffffffffffffffffff1673ffffffffffffffffffffffffffffffffffffffff1673ffffffffffffffffffffffffffffffffffffffff1681526020016005820160009054906101000a900473ffffffffffffffffffffffffffffffffffffffff1673ffffffffffffffffffffffffffffffffffffffff1673ffffffffffffffffffffffffffffffffffffffff168152505091505b80806106a4906117c6565b9150506104ff565b508092505050919050565b600260005414156106fd576040517f08c379a00000000000000000000000000000000000000000000000000000000081526004016106f4906118ca565b60405180910390fd5b600260008190555066038d7ea4c68000811161074e576040517f08c379a00000000000000000000000000000000000000000000000000000000081526004016107459061195c565b60405180910390fd5b61075860016112c5565b600061076460016112b7565b90506040518060e001604052808281526020018481526020018381526020016000151581526020013373ffffffffffffffffffffffffffffffffffffffff168152602001600073ffffffffffffffffffffffffffffffffffffffff1681526020018573ffffffffffffffffffffffffffffffffffffffff168152506005600083815260200190815260200160002060008201518160000155602082015181600101556040820151816002015560608201518160030160006101000a81548160ff02191690831515021790555060808201518160030160016101000a81548173ffffffffffffffffffffffffffffffffffffffff021916908373ffffffffffffffffffffffffffffffffffffffff16021790555060a08201518160040160006101000a81548173ffffffffffffffffffffffffffffffffffffffff021916908373ffffffffffffffffffffffffffffffffffffffff16021790555060c08201518160050160006101000a81548173ffffffffffffffffffffffffffffffffffffffff021916908373ffffffffffffffffffffffffffffffffffffffff1602179055509050508373ffffffffffffffffffffffffffffffffffffffff166323b872dd3330866040518463ffffffff1660e01b81526004016109459392919061198b565b600060405180830381600087803b15801561095f57600080fd5b505af1158015610973573d6000803e3d6000fd5b505050508373ffffffffffffffffffffffffffffffffffffffff1683827f9647d2e9a23c1809a0461ae22d7688427bce1e7e0b92d0cb92b0e7f4dd72dd9c853360006040516109c4939291906119c2565b60405180910390a4506001600081905550505050565b606060006109e860016112b7565b905060008060005b83811015610a91573373ffffffffffffffffffffffffffffffffffffffff1660056000600184610a209190611770565b815260200190815260200160002060040160009054906101000a900473ffffffffffffffffffffffffffffffffffffffff1673ffffffffffffffffffffffffffffffffffffffff161415610a7e57600183610a7b9190611770565b92505b8080610a89906117c6565b9150506109f0565b5060008267ffffffffffffffff811115610aae57610aad61180f565b5b604051908082528060200260200182016040528015610ae757816020015b610ad46112db565b815260200190600190039081610acc5790505b50905060005b84811015610d17573373ffffffffffffffffffffffffffffffffffffffff1660056000600184610b1d9190611770565b815260200190815260200160002060040160009054906101000a900473ffffffffffffffffffffffffffffffffffffffff1673ffffffffffffffffffffffffffffffffffffffff161415610d04576000600182610b7a9190611770565b9050600560008281526020019081526020016000206040518060e00160405290816000820154815260200160018201548152602001600282015481526020016003820160009054906101000a900460ff161515151581526020016003820160019054906101000a900473ffffffffffffffffffffffffffffffffffffffff1673ffffffffffffffffffffffffffffffffffffffff1673ffffffffffffffffffffffffffffffffffffffff1681526020016004820160009054906101000a900473ffffffffffffffffffffffffffffffffffffffff1673ffffffffffffffffffffffffffffffffffffffff1673ffffffffffffffffffffffffffffffffffffffff1681526020016005820160009054906101000a900473ffffffffffffffffffffffffffffffffffffffff1673ffffffffffffffffffffffffffffffffffffffff1673ffffffffffffffffffffffffffffffffffffffff1681525050838581518110610ce857610ce761183e565b5b6020026020010181905250600184610d009190611770565b9350505b8080610d0f906117c6565b915050610aed565b508094505050505090565b6000600454905090565b60026000541415610d72576040517f08c379a0000000000000000000000000000000000000000000000000000000008152600401610d69906118ca565b60405180910390fd5b6002600081905550600060056000838152602001908152602001600020905080600201543414610dd7576040517f08c379a0000000000000000000000000000000000000000000000000000000008152600401610dce90611a6b565b60405180910390fd5b81816000015414610e1d576040517f08c379a0000000000000000000000000000000000000000000000000000000008152600401610e1490611ad7565b60405180910390fd5b8060030160019054906101000a900473ffffffffffffffffffffffffffffffffffffffff1673ffffffffffffffffffffffffffffffffffffffff166108fc349081150290604051600060405180830381858888f19350505050158015610e87573d6000803e3d6000fd5b508273ffffffffffffffffffffffffffffffffffffffff166342842e0e303384600101546040518463ffffffff1660e01b8152600401610ec99392919061198b565b600060405180830381600087803b158015610ee357600080fd5b505af1158015610ef7573d6000803e3d6000fd5b5050505060018160030160006101000a81548160ff021916908315150217905550338160040160006101000a81548173ffffffffffffffffffffffffffffffffffffffff021916908373ffffffffffffffffffffffffffffffffffffffff160217905550610f6560026112c5565b8273ffffffffffffffffffffffffffffffffffffffff168160010154837f6dc41992b780d5ec805822abe657d7c8b88c58e424648da63c46ac05499d850b84600201548560030160019054906101000a900473ffffffffffffffffffffffffffffffffffffffff1633604051610fdd93929190611b56565b60405180910390a45060016000819055505050565b6060600061100060026112b7565b61100a60016112b7565b6110149190611b8d565b905060008167ffffffffffffffff8111156110325761103161180f565b5b60405190808252806020026020018201604052801561106b57816020015b6110586112db565b8152602001906001900390816110505790505b5090506000805b838110156112ad57600073ffffffffffffffffffffffffffffffffffffffff16600560006001846110a39190611770565b815260200190815260200160002060040160009054906101000a900473ffffffffffffffffffffffffffffffffffffffff1673ffffffffffffffffffffffffffffffffffffffff16141561129a5760056000600560006001856111069190611770565b81526020019081526020016000206000015481526020019081526020016000206040518060e00160405290816000820154815260200160018201548152602001600282015481526020016003820160009054906101000a900460ff161515151581526020016003820160019054906101000a900473ffffffffffffffffffffffffffffffffffffffff1673ffffffffffffffffffffffffffffffffffffffff1673ffffffffffffffffffffffffffffffffffffffff1681526020016004820160009054906101000a900473ffffffffffffffffffffffffffffffffffffffff1673ffffffffffffffffffffffffffffffffffffffff1673ffffffffffffffffffffffffffffffffffffffff1681526020016005820160009054906101000a900473ffffffffffffffffffffffffffffffffffffffff1673ffffffffffffffffffffffffffffffffffffffff1673ffffffffffffffffffffffffffffffffffffffff168152505083838151811061127f5761127e61183e565b5b60200260200101819052506001826112979190611770565b91505b80806112a5906117c6565b915050611072565b5081935050505090565b600081600001549050919050565b6001816000016000828254019250508190555050565b6040518060e00160405280600081526020016000815260200160008152602001600015158152602001600073ffffffffffffffffffffffffffffffffffffffff168152602001600073ffffffffffffffffffffffffffffffffffffffff168152602001600073ffffffffffffffffffffffffffffffffffffffff1681525090565b600081519050919050565b600082825260208201905092915050565b6000819050602082019050919050565b6000819050919050565b61139b81611388565b82525050565b60008115159050919050565b6113b6816113a1565b82525050565b600073ffffffffffffffffffffffffffffffffffffffff82169050919050565b60006113e7826113bc565b9050919050565b6113f7816113dc565b82525050565b6000611408826113bc565b9050919050565b611418816113fd565b82525050565b60e0820160008201516114346000850182611392565b5060208201516114476020850182611392565b50604082015161145a6040850182611392565b50606082015161146d60608501826113ad565b50608082015161148060808501826113ee565b5060a082015161149360a08501826113ee565b5060c08201516114a660c085018261140f565b50505050565b60006114b8838361141e565b60e08301905092915050565b6000602082019050919050565b60006114dc8261135c565b6114e68185611367565b93506114f183611378565b8060005b8381101561152257815161150988826114ac565b9750611514836114c4565b9250506001810190506114f5565b5085935050505092915050565b6000602082019050818103600083015261154981846114d1565b905092915050565b600080fd5b61155f81611388565b811461156a57600080fd5b50565b60008135905061157c81611556565b92915050565b60006020828403121561159857611597611551565b5b60006115a68482850161156d565b91505092915050565b60e0820160008201516115c56000850182611392565b5060208201516115d86020850182611392565b5060408201516115eb6040850182611392565b5060608201516115fe60608501826113ad565b50608082015161161160808501826113ee565b5060a082015161162460a08501826113ee565b5060c082015161163760c085018261140f565b50505050565b600060e08201905061165260008301846115af565b92915050565b611661816113fd565b811461166c57600080fd5b50565b60008135905061167e81611658565b92915050565b60008060006060848603121561169d5761169c611551565b5b60006116ab8682870161166f565b93505060206116bc8682870161156d565b92505060406116cd8682870161156d565b9150509250925092565b6116e081611388565b82525050565b60006020820190506116fb60008301846116d7565b92915050565b6000806040838503121561171857611717611551565b5b60006117268582860161166f565b92505060206117378582860161156d565b9150509250929050565b7f4e487b7100000000000000000000000000000000000000000000000000000000600052601160045260246000fd5b600061177b82611388565b915061178683611388565b9250827fffffffffffffffffffffffffffffffffffffffffffffffffffffffffffffffff038211156117bb576117ba611741565b5b828201905092915050565b60006117d182611388565b91507fffffffffffffffffffffffffffffffffffffffffffffffffffffffffffffffff82141561180457611803611741565b5b600182019050919050565b7f4e487b7100000000000000000000000000000000000000000000000000000000600052604160045260246000fd5b7f4e487b7100000000000000000000000000000000000000000000000000000000600052603260045260246000fd5b600082825260208201905092915050565b7f5265656e7472616e637947756172643a207265656e7472616e742063616c6c00600082015250565b60006118b4601f8361186d565b91506118bf8261187e565b602082019050919050565b600060208201905081810360008301526118e3816118a7565b9050919050565b7f4c697374696e672070726963652073686f756c64206265206174206c6561737460008201527f20302e3030310000000000000000000000000000000000000000000000000000602082015250565b600061194660268361186d565b9150611951826118ea565b604082019050919050565b6000602082019050818103600083015261197581611939565b9050919050565b611985816113fd565b82525050565b60006060820190506119a0600083018661197c565b6119ad602083018561197c565b6119ba60408301846116d7565b949350505050565b60006060820190506119d760008301866116d7565b6119e4602083018561197c565b6119f1604083018461197c565b949350505050565b7f50726963652073686f756c6420626520657175616c20746f206974656d20707260008201527f6963650000000000000000000000000000000000000000000000000000000000602082015250565b6000611a5560238361186d565b9150611a60826119f9565b604082019050919050565b60006020820190508181036000830152611a8481611a48565b9050919050565b7f54686973206974656d20646f6573206e6f742065786973740000000000000000600082015250565b6000611ac160188361186d565b9150611acc82611a8b565b602082019050919050565b60006020820190508181036000830152611af081611ab4565b9050919050565b6000819050919050565b6000611b1c611b17611b12846113bc565b611af7565b6113bc565b9050919050565b6000611b2e82611b01565b9050919050565b6000611b4082611b23565b9050919050565b611b5081611b35565b82525050565b6000606082019050611b6b60008301866116d7565b611b786020830185611b47565b611b85604083018461197c565b949350505050565b6000611b9882611388565b9150611ba383611388565b925082821015611bb657611bb5611741565b5b82820390509291505056fea264697066735822122064798bb720696abf344450d3846bb35b24883b51070084459d1cb5fd623992eb64736f6c63430008090033",
  "linkReferences": {},
  "deployedLinkReferences": {}
}