{
  "_format": "hh-sol-artifact-1",
  "contractName": "Marketplace",
  "sourceName": "contracts/Marketplace.sol",
  "abi": [
    {
      "inputs": [],
      "stateMutability": "nonpayable",
      "type": "constructor"
    },
    {
      "anonymous": false,
      "inputs": [
        {
          "indexed": false,
          "internalType": "uint256",
          "name": "price",
          "type": "uint256"
        },
        {
          "indexed": true,
          "internalType": "uint256",
          "name": "itemId",
          "type": "uint256"
        },
        {
          "indexed": true,
          "internalType": "uint256",
          "name": "tokenId",
          "type": "uint256"
        },
        {
          "indexed": true,
          "internalType": "address",
          "name": "nftContract",
          "type": "address"
        },
        {
          "indexed": false,
          "internalType": "address",
          "name": "seller",
          "type": "address"
        },
        {
          "indexed": false,
          "internalType": "address",
          "name": "owner",
          "type": "address"
        }
      ],
      "name": "MarketItemCreated",
      "type": "event"
    },
    {
      "anonymous": false,
      "inputs": [
        {
          "indexed": false,
          "internalType": "uint256",
          "name": "price",
          "type": "uint256"
        },
        {
          "indexed": true,
          "internalType": "uint256",
          "name": "itemId",
          "type": "uint256"
        },
        {
          "indexed": true,
          "internalType": "uint256",
          "name": "tokenId",
          "type": "uint256"
        },
        {
          "indexed": true,
          "internalType": "address",
          "name": "nftContract",
          "type": "address"
        },
        {
          "indexed": false,
          "internalType": "address",
          "name": "seller",
          "type": "address"
        },
        {
          "indexed": false,
          "internalType": "address",
          "name": "buyer",
          "type": "address"
        }
      ],
      "name": "MarketItemSold",
      "type": "event"
    },
    {
      "inputs": [
        {
          "internalType": "address",
          "name": "nftContract",
          "type": "address"
        },
        {
          "internalType": "uint256",
          "name": "tokenId",
          "type": "uint256"
        },
        {
          "internalType": "uint256",
          "name": "price",
          "type": "uint256"
        }
      ],
      "name": "createMarketItem",
      "outputs": [],
      "stateMutability": "payable",
      "type": "function"
    },
    {
      "inputs": [
        {
          "internalType": "address",
          "name": "nftContract",
          "type": "address"
        },
        {
          "internalType": "uint256",
          "name": "itemId",
          "type": "uint256"
        }
      ],
      "name": "createMarketSale",
      "outputs": [],
      "stateMutability": "payable",
      "type": "function"
    },
    {
      "inputs": [],
      "name": "getAllMarketItems",
      "outputs": [
        {
          "components": [
            {
              "internalType": "uint256",
              "name": "itemId",
              "type": "uint256"
            },
            {
              "internalType": "uint256",
              "name": "tokenId",
              "type": "uint256"
            },
            {
              "internalType": "uint256",
              "name": "price",
              "type": "uint256"
            },
            {
              "internalType": "bool",
              "name": "isSold",
              "type": "bool"
            },
            {
              "internalType": "address payable",
              "name": "seller",
              "type": "address"
            },
            {
              "internalType": "address payable",
              "name": "owner",
              "type": "address"
            },
            {
              "internalType": "address",
              "name": "nftContract",
              "type": "address"
            }
          ],
          "internalType": "struct Marketplace.MarketItem[]",
          "name": "",
          "type": "tuple[]"
        }
      ],
      "stateMutability": "view",
      "type": "function"
    },
    {
      "inputs": [],
      "name": "getListingCommision",
      "outputs": [
        {
          "internalType": "uint256",
          "name": "",
          "type": "uint256"
        }
      ],
      "stateMutability": "view",
      "type": "function"
    },
    {
      "inputs": [
        {
          "internalType": "address",
          "name": "MyAddress",
          "type": "address"
        }
      ],
      "name": "getMyNFTs",
      "outputs": [
        {
          "components": [
            {
              "internalType": "uint256",
              "name": "itemId",
              "type": "uint256"
            },
            {
              "internalType": "uint256",
              "name": "tokenId",
              "type": "uint256"
            },
            {
              "internalType": "uint256",
              "name": "price",
              "type": "uint256"
            },
            {
              "internalType": "bool",
              "name": "isSold",
              "type": "bool"
            },
            {
              "internalType": "address payable",
              "name": "seller",
              "type": "address"
            },
            {
              "internalType": "address payable",
              "name": "owner",
              "type": "address"
            },
            {
              "internalType": "address",
              "name": "nftContract",
              "type": "address"
            }
          ],
          "internalType": "struct Marketplace.MarketItem[]",
          "name": "",
          "type": "tuple[]"
        }
      ],
      "stateMutability": "view",
      "type": "function"
    },
    {
      "inputs": [
        {
          "internalType": "uint256",
          "name": "itemId",
          "type": "uint256"
        }
      ],
      "name": "getNFT",
      "outputs": [
        {
          "components": [
            {
              "internalType": "uint256",
              "name": "itemId",
              "type": "uint256"
            },
            {
              "internalType": "uint256",
              "name": "tokenId",
              "type": "uint256"
            },
            {
              "internalType": "uint256",
              "name": "price",
              "type": "uint256"
            },
            {
              "internalType": "bool",
              "name": "isSold",
              "type": "bool"
            },
            {
              "internalType": "address payable",
              "name": "seller",
              "type": "address"
            },
            {
              "internalType": "address payable",
              "name": "owner",
              "type": "address"
            },
            {
              "internalType": "address",
              "name": "nftContract",
              "type": "address"
            }
          ],
          "internalType": "struct Marketplace.MarketItem",
          "name": "",
          "type": "tuple"
        }
      ],
      "stateMutability": "view",
      "type": "function"
    },
    {
      "inputs": [],
      "name": "getNFTsCreated",
      "outputs": [
        {
          "components": [
            {
              "internalType": "uint256",
              "name": "itemId",
              "type": "uint256"
            },
            {
              "internalType": "uint256",
              "name": "tokenId",
              "type": "uint256"
            },
            {
              "internalType": "uint256",
              "name": "price",
              "type": "uint256"
            },
            {
              "internalType": "bool",
              "name": "isSold",
              "type": "bool"
            },
            {
              "internalType": "address payable",
              "name": "seller",
              "type": "address"
            },
            {
              "internalType": "address payable",
              "name": "owner",
              "type": "address"
            },
            {
              "internalType": "address",
              "name": "nftContract",
              "type": "address"
            }
          ],
          "internalType": "struct Marketplace.MarketItem[]",
          "name": "",
          "type": "tuple[]"
        }
      ],
      "stateMutability": "view",
      "type": "function"
    }
  ],
  "bytecode": "0x608060405266470de4df82000060045534801561001b57600080fd5b50600160008190555033600360006101000a81548173ffffffffffffffffffffffffffffffffffffffff021916908373ffffffffffffffffffffffffffffffffffffffff160217905550611bc0806100746000396000f3fe6080604052600436106100705760003560e01c80636a8b52ae1161004e5780636a8b52ae146100f9578063c23b139e14610124578063e921ee6e14610140578063f16d376c1461017d57610070565b8063236dd8de14610075578063576f7ea7146100a057806358eb2df5146100dd575b600080fd5b34801561008157600080fd5b5061008a6101a8565b60405161009791906114cb565b60405180910390f35b3480156100ac57600080fd5b506100c760048036038101906100c2919061151e565b6104f0565b6040516100d491906115d9565b60405180910390f35b6100f760048036038101906100f29190611620565b6106c9565b005b34801561010557600080fd5b5061010e6109ec565b60405161011b9190611682565b60405180910390f35b61013e6004803603810190610139919061169d565b6109f6565b005b34801561014c57600080fd5b50610167600480360381019061016291906116dd565b610cbc565b60405161017491906114cb565b60405180910390f35b34801561018957600080fd5b50610192611006565b60405161019f91906114cb565b60405180910390f35b606060006101b66001611253565b905060008060005b8381101561025f573373ffffffffffffffffffffffffffffffffffffffff16600560006001846101ee9190611739565b815260200190815260200160002060030160019054906101000a900473ffffffffffffffffffffffffffffffffffffffff1673ffffffffffffffffffffffffffffffffffffffff16141561024c576001836102499190611739565b92505b80806102579061178f565b9150506101be565b5060008267ffffffffffffffff81111561027c5761027b6117d8565b5b6040519080825280602002602001820160405280156102b557816020015b6102a2611277565b81526020019060019003908161029a5790505b50905060005b848110156104e5573373ffffffffffffffffffffffffffffffffffffffff16600560006001846102eb9190611739565b815260200190815260200160002060030160019054906101000a900473ffffffffffffffffffffffffffffffffffffffff1673ffffffffffffffffffffffffffffffffffffffff1614156104d25760006001826103489190611739565b9050600560008281526020019081526020016000206040518060e00160405290816000820154815260200160018201548152602001600282015481526020016003820160009054906101000a900460ff161515151581526020016003820160019054906101000a900473ffffffffffffffffffffffffffffffffffffffff1673ffffffffffffffffffffffffffffffffffffffff1673ffffffffffffffffffffffffffffffffffffffff1681526020016004820160009054906101000a900473ffffffffffffffffffffffffffffffffffffffff1673ffffffffffffffffffffffffffffffffffffffff1673ffffffffffffffffffffffffffffffffffffffff1681526020016005820160009054906101000a900473ffffffffffffffffffffffffffffffffffffffff1673ffffffffffffffffffffffffffffffffffffffff1673ffffffffffffffffffffffffffffffffffffffff16815250508385815181106104b6576104b5611807565b5b60200260200101819052506001846104ce9190611739565b9350505b80806104dd9061178f565b9150506102bb565b508094505050505090565b6104f8611277565b60006105046001611253565b905061050e611277565b60005b828110156106be57846005600060018461052b9190611739565b81526020019081526020016000206000015414156106ab57600560006001836105549190611739565b81526020019081526020016000206040518060e00160405290816000820154815260200160018201548152602001600282015481526020016003820160009054906101000a900460ff161515151581526020016003820160019054906101000a900473ffffffffffffffffffffffffffffffffffffffff1673ffffffffffffffffffffffffffffffffffffffff1673ffffffffffffffffffffffffffffffffffffffff1681526020016004820160009054906101000a900473ffffffffffffffffffffffffffffffffffffffff1673ffffffffffffffffffffffffffffffffffffffff1673ffffffffffffffffffffffffffffffffffffffff1681526020016005820160009054906101000a900473ffffffffffffffffffffffffffffffffffffffff1673ffffffffffffffffffffffffffffffffffffffff1673ffffffffffffffffffffffffffffffffffffffff168152505091505b80806106b69061178f565b915050610511565b508092505050919050565b6002600054141561070f576040517f08c379a000000000000000000000000000000000000000000000000000000000815260040161070690611893565b60405180910390fd5b600260008190555066038d7ea4c680008111610760576040517f08c379a000000000000000000000000000000000000000000000000000000000815260040161075790611925565b60405180910390fd5b61076a6001611261565b60006107766001611253565b90506040518060e00160405280828152602001848152602001838152602001600015158152602001600073ffffffffffffffffffffffffffffffffffffffff1681526020013373ffffffffffffffffffffffffffffffffffffffff1681526020018573ffffffffffffffffffffffffffffffffffffffff168152506005600083815260200190815260200160002060008201518160000155602082015181600101556040820151816002015560608201518160030160006101000a81548160ff02191690831515021790555060808201518160030160016101000a81548173ffffffffffffffffffffffffffffffffffffffff021916908373ffffffffffffffffffffffffffffffffffffffff16021790555060a08201518160040160006101000a81548173ffffffffffffffffffffffffffffffffffffffff021916908373ffffffffffffffffffffffffffffffffffffffff16021790555060c08201518160050160006101000a81548173ffffffffffffffffffffffffffffffffffffffff021916908373ffffffffffffffffffffffffffffffffffffffff1602179055509050508373ffffffffffffffffffffffffffffffffffffffff166323b872dd3330866040518463ffffffff1660e01b815260040161095793929190611954565b600060405180830381600087803b15801561097157600080fd5b505af1158015610985573d6000803e3d6000fd5b505050508373ffffffffffffffffffffffffffffffffffffffff1683827f9647d2e9a23c1809a0461ae22d7688427bce1e7e0b92d0cb92b0e7f4dd72dd9c856000336040516109d69392919061198b565b60405180910390a4506001600081905550505050565b6000600454905090565b60026000541415610a3c576040517f08c379a0000000000000000000000000000000000000000000000000000000008152600401610a3390611893565b60405180910390fd5b6002600081905550600060056000838152602001908152602001600020905080600201543414610aa1576040517f08c379a0000000000000000000000000000000000000000000000000000000008152600401610a9890611a34565b60405180910390fd5b81816000015414610ae7576040517f08c379a0000000000000000000000000000000000000000000000000000000008152600401610ade90611aa0565b60405180910390fd5b8060030160019054906101000a900473ffffffffffffffffffffffffffffffffffffffff1673ffffffffffffffffffffffffffffffffffffffff166108fc349081150290604051600060405180830381858888f19350505050158015610b51573d6000803e3d6000fd5b508273ffffffffffffffffffffffffffffffffffffffff166342842e0e303384600101546040518463ffffffff1660e01b8152600401610b9393929190611954565b600060405180830381600087803b158015610bad57600080fd5b505af1158015610bc1573d6000803e3d6000fd5b5050505060018160030160006101000a81548160ff021916908315150217905550338160040160006101000a81548173ffffffffffffffffffffffffffffffffffffffff021916908373ffffffffffffffffffffffffffffffffffffffff160217905550610c2f6002611261565b8273ffffffffffffffffffffffffffffffffffffffff168160010154837f6dc41992b780d5ec805822abe657d7c8b88c58e424648da63c46ac05499d850b84600201548560030160019054906101000a900473ffffffffffffffffffffffffffffffffffffffff1633604051610ca793929190611b1f565b60405180910390a45060016000819055505050565b60606000610cca6001611253565b905060008060005b83811015610d73578573ffffffffffffffffffffffffffffffffffffffff1660056000600184610d029190611739565b815260200190815260200160002060040160009054906101000a900473ffffffffffffffffffffffffffffffffffffffff1673ffffffffffffffffffffffffffffffffffffffff161415610d6057600183610d5d9190611739565b92505b8080610d6b9061178f565b915050610cd2565b5060008267ffffffffffffffff811115610d9057610d8f6117d8565b5b604051908082528060200260200182016040528015610dc957816020015b610db6611277565b815260200190600190039081610dae5790505b50905060005b84811015610ff9578673ffffffffffffffffffffffffffffffffffffffff1660056000600184610dff9190611739565b815260200190815260200160002060040160009054906101000a900473ffffffffffffffffffffffffffffffffffffffff1673ffffffffffffffffffffffffffffffffffffffff161415610fe6576000600182610e5c9190611739565b9050600560008281526020019081526020016000206040518060e00160405290816000820154815260200160018201548152602001600282015481526020016003820160009054906101000a900460ff161515151581526020016003820160019054906101000a900473ffffffffffffffffffffffffffffffffffffffff1673ffffffffffffffffffffffffffffffffffffffff1673ffffffffffffffffffffffffffffffffffffffff1681526020016004820160009054906101000a900473ffffffffffffffffffffffffffffffffffffffff1673ffffffffffffffffffffffffffffffffffffffff1673ffffffffffffffffffffffffffffffffffffffff1681526020016005820160009054906101000a900473ffffffffffffffffffffffffffffffffffffffff1673ffffffffffffffffffffffffffffffffffffffff1673ffffffffffffffffffffffffffffffffffffffff1681525050838581518110610fca57610fc9611807565b5b6020026020010181905250600184610fe29190611739565b9350505b8080610ff19061178f565b915050610dcf565b5080945050505050919050565b606060006110146002611253565b61101e6001611253565b6110289190611b56565b905060008167ffffffffffffffff811115611046576110456117d8565b5b60405190808252806020026020018201604052801561107f57816020015b61106c611277565b8152602001906001900390816110645790505b5090506000805b838110156112495760056000600560006001856110a39190611739565b81526020019081526020016000206000015481526020019081526020016000206040518060e00160405290816000820154815260200160018201548152602001600282015481526020016003820160009054906101000a900460ff161515151581526020016003820160019054906101000a900473ffffffffffffffffffffffffffffffffffffffff1673ffffffffffffffffffffffffffffffffffffffff1673ffffffffffffffffffffffffffffffffffffffff1681526020016004820160009054906101000a900473ffffffffffffffffffffffffffffffffffffffff1673ffffffffffffffffffffffffffffffffffffffff1673ffffffffffffffffffffffffffffffffffffffff1681526020016005820160009054906101000a900473ffffffffffffffffffffffffffffffffffffffff1673ffffffffffffffffffffffffffffffffffffffff1673ffffffffffffffffffffffffffffffffffffffff168152505083838151811061121c5761121b611807565b5b60200260200101819052506001826112349190611739565b915080806112419061178f565b915050611086565b5081935050505090565b600081600001549050919050565b6001816000016000828254019250508190555050565b6040518060e00160405280600081526020016000815260200160008152602001600015158152602001600073ffffffffffffffffffffffffffffffffffffffff168152602001600073ffffffffffffffffffffffffffffffffffffffff168152602001600073ffffffffffffffffffffffffffffffffffffffff1681525090565b600081519050919050565b600082825260208201905092915050565b6000819050602082019050919050565b6000819050919050565b61133781611324565b82525050565b60008115159050919050565b6113528161133d565b82525050565b600073ffffffffffffffffffffffffffffffffffffffff82169050919050565b600061138382611358565b9050919050565b61139381611378565b82525050565b60006113a482611358565b9050919050565b6113b481611399565b82525050565b60e0820160008201516113d0600085018261132e565b5060208201516113e3602085018261132e565b5060408201516113f6604085018261132e565b5060608201516114096060850182611349565b50608082015161141c608085018261138a565b5060a082015161142f60a085018261138a565b5060c082015161144260c08501826113ab565b50505050565b600061145483836113ba565b60e08301905092915050565b6000602082019050919050565b6000611478826112f8565b6114828185611303565b935061148d83611314565b8060005b838110156114be5781516114a58882611448565b97506114b083611460565b925050600181019050611491565b5085935050505092915050565b600060208201905081810360008301526114e5818461146d565b905092915050565b600080fd5b6114fb81611324565b811461150657600080fd5b50565b600081359050611518816114f2565b92915050565b600060208284031215611534576115336114ed565b5b600061154284828501611509565b91505092915050565b60e082016000820151611561600085018261132e565b506020820151611574602085018261132e565b506040820151611587604085018261132e565b50606082015161159a6060850182611349565b5060808201516115ad608085018261138a565b5060a08201516115c060a085018261138a565b5060c08201516115d360c08501826113ab565b50505050565b600060e0820190506115ee600083018461154b565b92915050565b6115fd81611399565b811461160857600080fd5b50565b60008135905061161a816115f4565b92915050565b600080600060608486031215611639576116386114ed565b5b60006116478682870161160b565b935050602061165886828701611509565b925050604061166986828701611509565b9150509250925092565b61167c81611324565b82525050565b60006020820190506116976000830184611673565b92915050565b600080604083850312156116b4576116b36114ed565b5b60006116c28582860161160b565b92505060206116d385828601611509565b9150509250929050565b6000602082840312156116f3576116f26114ed565b5b60006117018482850161160b565b91505092915050565b7f4e487b7100000000000000000000000000000000000000000000000000000000600052601160045260246000fd5b600061174482611324565b915061174f83611324565b9250827fffffffffffffffffffffffffffffffffffffffffffffffffffffffffffffffff038211156117845761178361170a565b5b828201905092915050565b600061179a82611324565b91507fffffffffffffffffffffffffffffffffffffffffffffffffffffffffffffffff8214156117cd576117cc61170a565b5b600182019050919050565b7f4e487b7100000000000000000000000000000000000000000000000000000000600052604160045260246000fd5b7f4e487b7100000000000000000000000000000000000000000000000000000000600052603260045260246000fd5b600082825260208201905092915050565b7f5265656e7472616e637947756172643a207265656e7472616e742063616c6c00600082015250565b600061187d601f83611836565b915061188882611847565b602082019050919050565b600060208201905081810360008301526118ac81611870565b9050919050565b7f4c697374696e672070726963652073686f756c64206265206174206c6561737460008201527f20302e3030310000000000000000000000000000000000000000000000000000602082015250565b600061190f602683611836565b915061191a826118b3565b604082019050919050565b6000602082019050818103600083015261193e81611902565b9050919050565b61194e81611399565b82525050565b60006060820190506119696000830186611945565b6119766020830185611945565b6119836040830184611673565b949350505050565b60006060820190506119a06000830186611673565b6119ad6020830185611945565b6119ba6040830184611945565b949350505050565b7f50726963652073686f756c6420626520657175616c20746f206974656d20707260008201527f6963650000000000000000000000000000000000000000000000000000000000602082015250565b6000611a1e602383611836565b9150611a29826119c2565b604082019050919050565b60006020820190508181036000830152611a4d81611a11565b9050919050565b7f54686973206974656d20646f6573206e6f742065786973740000000000000000600082015250565b6000611a8a601883611836565b9150611a9582611a54565b602082019050919050565b60006020820190508181036000830152611ab981611a7d565b9050919050565b6000819050919050565b6000611ae5611ae0611adb84611358565b611ac0565b611358565b9050919050565b6000611af782611aca565b9050919050565b6000611b0982611aec565b9050919050565b611b1981611afe565b82525050565b6000606082019050611b346000830186611673565b611b416020830185611b10565b611b4e6040830184611945565b949350505050565b6000611b6182611324565b9150611b6c83611324565b925082821015611b7f57611b7e61170a565b5b82820390509291505056fea26469706673582212201d09f8cf61988a11ea4e0950c25454a55f4202f3e402da0328ffcc68bf09a12a64736f6c63430008090033",
  "linkReferences": {},
  "deployedLinkReferences": {}
}