{
  "_format": "hh-sol-artifact-1",
  "contractName": "Marketplace",
  "sourceName": "contracts/Marketplace.sol",
  "abi": [
    {
      "inputs": [],
      "stateMutability": "nonpayable",
      "type": "constructor"
    },
    {
      "anonymous": false,
      "inputs": [
        {
          "indexed": false,
          "internalType": "uint256",
          "name": "price",
          "type": "uint256"
        },
        {
          "indexed": true,
          "internalType": "uint256",
          "name": "itemId",
          "type": "uint256"
        },
        {
          "indexed": true,
          "internalType": "uint256",
          "name": "tokenId",
          "type": "uint256"
        },
        {
          "indexed": true,
          "internalType": "address",
          "name": "nftContract",
          "type": "address"
        },
        {
          "indexed": false,
          "internalType": "address",
          "name": "seller",
          "type": "address"
        },
        {
          "indexed": false,
          "internalType": "address",
          "name": "buyer",
          "type": "address"
        }
      ],
      "name": "MarketItemBuy",
      "type": "event"
    },
    {
      "anonymous": false,
      "inputs": [
        {
          "indexed": false,
          "internalType": "uint256",
          "name": "price",
          "type": "uint256"
        },
        {
          "indexed": true,
          "internalType": "uint256",
          "name": "itemId",
          "type": "uint256"
        },
        {
          "indexed": true,
          "internalType": "uint256",
          "name": "tokenId",
          "type": "uint256"
        },
        {
          "indexed": true,
          "internalType": "address",
          "name": "nftContract",
          "type": "address"
        },
        {
          "indexed": false,
          "internalType": "address",
          "name": "seller",
          "type": "address"
        },
        {
          "indexed": false,
          "internalType": "address",
          "name": "owner",
          "type": "address"
        }
      ],
      "name": "MarketItemCreated",
      "type": "event"
    },
    {
      "anonymous": false,
      "inputs": [
        {
          "indexed": false,
          "internalType": "uint256",
          "name": "price",
          "type": "uint256"
        },
        {
          "indexed": true,
          "internalType": "uint256",
          "name": "itemId",
          "type": "uint256"
        },
        {
          "indexed": true,
          "internalType": "uint256",
          "name": "tokenId",
          "type": "uint256"
        },
        {
          "indexed": true,
          "internalType": "address",
          "name": "nftContract",
          "type": "address"
        },
        {
          "indexed": false,
          "internalType": "address",
          "name": "seller",
          "type": "address"
        },
        {
          "indexed": false,
          "internalType": "address",
          "name": "owner",
          "type": "address"
        }
      ],
      "name": "MarketItemSell",
      "type": "event"
    },
    {
      "inputs": [
        {
          "internalType": "address",
          "name": "nftContract",
          "type": "address"
        },
        {
          "internalType": "uint256",
          "name": "itemId",
          "type": "uint256"
        }
      ],
      "name": "createMarketBuy",
      "outputs": [],
      "stateMutability": "payable",
      "type": "function"
    },
    {
      "inputs": [
        {
          "internalType": "address",
          "name": "nftContract",
          "type": "address"
        },
        {
          "internalType": "uint256",
          "name": "tokenId",
          "type": "uint256"
        },
        {
          "internalType": "uint256",
          "name": "price",
          "type": "uint256"
        }
      ],
      "name": "createMarketItem",
      "outputs": [],
      "stateMutability": "payable",
      "type": "function"
    },
    {
      "inputs": [
        {
          "internalType": "address",
          "name": "nftContract",
          "type": "address"
        },
        {
          "internalType": "uint256",
          "name": "itemId",
          "type": "uint256"
        },
        {
          "internalType": "uint256",
          "name": "price",
          "type": "uint256"
        }
      ],
      "name": "createMarketSell",
      "outputs": [],
      "stateMutability": "payable",
      "type": "function"
    },
    {
      "inputs": [],
      "name": "getAllMarketItems",
      "outputs": [
        {
          "components": [
            {
              "internalType": "uint256",
              "name": "itemId",
              "type": "uint256"
            },
            {
              "internalType": "uint256",
              "name": "tokenId",
              "type": "uint256"
            },
            {
              "internalType": "uint256",
              "name": "price",
              "type": "uint256"
            },
            {
              "internalType": "bool",
              "name": "isSold",
              "type": "bool"
            },
            {
              "internalType": "address payable",
              "name": "seller",
              "type": "address"
            },
            {
              "internalType": "address payable",
              "name": "owner",
              "type": "address"
            },
            {
              "internalType": "address",
              "name": "nftContract",
              "type": "address"
            }
          ],
          "internalType": "struct Marketplace.MarketItem[]",
          "name": "",
          "type": "tuple[]"
        }
      ],
      "stateMutability": "view",
      "type": "function"
    },
    {
      "inputs": [],
      "name": "getListingCommision",
      "outputs": [
        {
          "internalType": "uint256",
          "name": "",
          "type": "uint256"
        }
      ],
      "stateMutability": "view",
      "type": "function"
    },
    {
      "inputs": [
        {
          "internalType": "address",
          "name": "MyAddress",
          "type": "address"
        }
      ],
      "name": "getMyNFTs",
      "outputs": [
        {
          "components": [
            {
              "internalType": "uint256",
              "name": "itemId",
              "type": "uint256"
            },
            {
              "internalType": "uint256",
              "name": "tokenId",
              "type": "uint256"
            },
            {
              "internalType": "uint256",
              "name": "price",
              "type": "uint256"
            },
            {
              "internalType": "bool",
              "name": "isSold",
              "type": "bool"
            },
            {
              "internalType": "address payable",
              "name": "seller",
              "type": "address"
            },
            {
              "internalType": "address payable",
              "name": "owner",
              "type": "address"
            },
            {
              "internalType": "address",
              "name": "nftContract",
              "type": "address"
            }
          ],
          "internalType": "struct Marketplace.MarketItem[]",
          "name": "",
          "type": "tuple[]"
        }
      ],
      "stateMutability": "view",
      "type": "function"
    },
    {
      "inputs": [
        {
          "internalType": "uint256",
          "name": "itemId",
          "type": "uint256"
        }
      ],
      "name": "getNFT",
      "outputs": [
        {
          "components": [
            {
              "internalType": "uint256",
              "name": "itemId",
              "type": "uint256"
            },
            {
              "internalType": "uint256",
              "name": "tokenId",
              "type": "uint256"
            },
            {
              "internalType": "uint256",
              "name": "price",
              "type": "uint256"
            },
            {
              "internalType": "bool",
              "name": "isSold",
              "type": "bool"
            },
            {
              "internalType": "address payable",
              "name": "seller",
              "type": "address"
            },
            {
              "internalType": "address payable",
              "name": "owner",
              "type": "address"
            },
            {
              "internalType": "address",
              "name": "nftContract",
              "type": "address"
            }
          ],
          "internalType": "struct Marketplace.MarketItem",
          "name": "",
          "type": "tuple"
        }
      ],
      "stateMutability": "view",
      "type": "function"
    },
    {
      "inputs": [],
      "name": "getNFTsCreated",
      "outputs": [
        {
          "components": [
            {
              "internalType": "uint256",
              "name": "itemId",
              "type": "uint256"
            },
            {
              "internalType": "uint256",
              "name": "tokenId",
              "type": "uint256"
            },
            {
              "internalType": "uint256",
              "name": "price",
              "type": "uint256"
            },
            {
              "internalType": "bool",
              "name": "isSold",
              "type": "bool"
            },
            {
              "internalType": "address payable",
              "name": "seller",
              "type": "address"
            },
            {
              "internalType": "address payable",
              "name": "owner",
              "type": "address"
            },
            {
              "internalType": "address",
              "name": "nftContract",
              "type": "address"
            }
          ],
          "internalType": "struct Marketplace.MarketItem[]",
          "name": "",
          "type": "tuple[]"
        }
      ],
      "stateMutability": "view",
      "type": "function"
    }
  ],
  "bytecode": "0x608060405266470de4df82000060045534801561001b57600080fd5b50600160008190555033600360006101000a81548173ffffffffffffffffffffffffffffffffffffffff021916908373ffffffffffffffffffffffffffffffffffffffff160217905550611e4c806100746000396000f3fe60806040526004361061007b5760003560e01c80639ec16e391161004e5780639ec16e391461012f578063a88b4a891461014b578063e921ee6e14610167578063f16d376c146101a45761007b565b8063236dd8de14610080578063576f7ea7146100ab57806358eb2df5146100e85780636a8b52ae14610104575b600080fd5b34801561008c57600080fd5b506100956101cf565b6040516100a2919061178b565b60405180910390f35b3480156100b757600080fd5b506100d260048036038101906100cd91906117de565b610517565b6040516100df9190611899565b60405180910390f35b61010260048036038101906100fd91906118e0565b6106f0565b005b34801561011057600080fd5b50610119610a11565b6040516101269190611942565b60405180910390f35b610149600480360381019061014491906118e0565b610a1b565b005b6101656004803603810190610160919061195d565b610cca565b005b34801561017357600080fd5b5061018e6004803603810190610189919061199d565b610f90565b60405161019b919061178b565b60405180910390f35b3480156101b057600080fd5b506101b96112da565b6040516101c6919061178b565b60405180910390f35b606060006101dd6001611513565b905060008060005b83811015610286573373ffffffffffffffffffffffffffffffffffffffff166005600060018461021591906119f9565b815260200190815260200160002060030160019054906101000a900473ffffffffffffffffffffffffffffffffffffffff1673ffffffffffffffffffffffffffffffffffffffff1614156102735760018361027091906119f9565b92505b808061027e90611a4f565b9150506101e5565b5060008267ffffffffffffffff8111156102a3576102a2611a98565b5b6040519080825280602002602001820160405280156102dc57816020015b6102c9611537565b8152602001906001900390816102c15790505b50905060005b8481101561050c573373ffffffffffffffffffffffffffffffffffffffff166005600060018461031291906119f9565b815260200190815260200160002060030160019054906101000a900473ffffffffffffffffffffffffffffffffffffffff1673ffffffffffffffffffffffffffffffffffffffff1614156104f957600060018261036f91906119f9565b9050600560008281526020019081526020016000206040518060e00160405290816000820154815260200160018201548152602001600282015481526020016003820160009054906101000a900460ff161515151581526020016003820160019054906101000a900473ffffffffffffffffffffffffffffffffffffffff1673ffffffffffffffffffffffffffffffffffffffff1673ffffffffffffffffffffffffffffffffffffffff1681526020016004820160009054906101000a900473ffffffffffffffffffffffffffffffffffffffff1673ffffffffffffffffffffffffffffffffffffffff1673ffffffffffffffffffffffffffffffffffffffff1681526020016005820160009054906101000a900473ffffffffffffffffffffffffffffffffffffffff1673ffffffffffffffffffffffffffffffffffffffff1673ffffffffffffffffffffffffffffffffffffffff16815250508385815181106104dd576104dc611ac7565b5b60200260200101819052506001846104f591906119f9565b9350505b808061050490611a4f565b9150506102e2565b508094505050505090565b61051f611537565b600061052b6001611513565b9050610535611537565b60005b828110156106e557846005600060018461055291906119f9565b81526020019081526020016000206000015414156106d2576005600060018361057b91906119f9565b81526020019081526020016000206040518060e00160405290816000820154815260200160018201548152602001600282015481526020016003820160009054906101000a900460ff161515151581526020016003820160019054906101000a900473ffffffffffffffffffffffffffffffffffffffff1673ffffffffffffffffffffffffffffffffffffffff1673ffffffffffffffffffffffffffffffffffffffff1681526020016004820160009054906101000a900473ffffffffffffffffffffffffffffffffffffffff1673ffffffffffffffffffffffffffffffffffffffff1673ffffffffffffffffffffffffffffffffffffffff1681526020016005820160009054906101000a900473ffffffffffffffffffffffffffffffffffffffff1673ffffffffffffffffffffffffffffffffffffffff1673ffffffffffffffffffffffffffffffffffffffff168152505091505b80806106dd90611a4f565b915050610538565b508092505050919050565b60026000541415610736576040517f08c379a000000000000000000000000000000000000000000000000000000000815260040161072d90611b53565b60405180910390fd5b600260008190555066038d7ea4c680008111610787576040517f08c379a000000000000000000000000000000000000000000000000000000000815260040161077e90611be5565b60405180910390fd5b6107916001611521565b600061079d6001611513565b90506040518060e001604052808281526020018481526020018381526020016000151581526020013373ffffffffffffffffffffffffffffffffffffffff1681526020013373ffffffffffffffffffffffffffffffffffffffff1681526020018573ffffffffffffffffffffffffffffffffffffffff168152506005600083815260200190815260200160002060008201518160000155602082015181600101556040820151816002015560608201518160030160006101000a81548160ff02191690831515021790555060808201518160030160016101000a81548173ffffffffffffffffffffffffffffffffffffffff021916908373ffffffffffffffffffffffffffffffffffffffff16021790555060a08201518160040160006101000a81548173ffffffffffffffffffffffffffffffffffffffff021916908373ffffffffffffffffffffffffffffffffffffffff16021790555060c08201518160050160006101000a81548173ffffffffffffffffffffffffffffffffffffffff021916908373ffffffffffffffffffffffffffffffffffffffff1602179055509050508373ffffffffffffffffffffffffffffffffffffffff166323b872dd3330866040518463ffffffff1660e01b815260040161097d93929190611c14565b600060405180830381600087803b15801561099757600080fd5b505af11580156109ab573d6000803e3d6000fd5b505050508373ffffffffffffffffffffffffffffffffffffffff1683827f9647d2e9a23c1809a0461ae22d7688427bce1e7e0b92d0cb92b0e7f4dd72dd9c8533336040516109fb93929190611c4b565b60405180910390a4506001600081905550505050565b6000600454905090565b60026000541415610a61576040517f08c379a0000000000000000000000000000000000000000000000000000000008152600401610a5890611b53565b60405180910390fd5b600260008190555066038d7ea4c680008111610ab2576040517f08c379a0000000000000000000000000000000000000000000000000000000008152600401610aa990611be5565b60405180910390fd5b6000610abd83610517565b90506040518060e00160405280848152602001826020015181526020018381526020016000151581526020013373ffffffffffffffffffffffffffffffffffffffff1681526020013373ffffffffffffffffffffffffffffffffffffffff1681526020018573ffffffffffffffffffffffffffffffffffffffff168152506005600085815260200190815260200160002060008201518160000155602082015181600101556040820151816002015560608201518160030160006101000a81548160ff02191690831515021790555060808201518160030160016101000a81548173ffffffffffffffffffffffffffffffffffffffff021916908373ffffffffffffffffffffffffffffffffffffffff16021790555060a08201518160040160006101000a81548173ffffffffffffffffffffffffffffffffffffffff021916908373ffffffffffffffffffffffffffffffffffffffff16021790555060c08201518160050160006101000a81548173ffffffffffffffffffffffffffffffffffffffff021916908373ffffffffffffffffffffffffffffffffffffffff1602179055509050508373ffffffffffffffffffffffffffffffffffffffff168160200151847f699d0232d9fbd887c8eae26af9108ffd4f78e5e75790bec568cb8bdf21d8dc32853333604051610cb493929190611c4b565b60405180910390a4506001600081905550505050565b60026000541415610d10576040517f08c379a0000000000000000000000000000000000000000000000000000000008152600401610d0790611b53565b60405180910390fd5b6002600081905550600060056000838152602001908152602001600020905080600201543414610d75576040517f08c379a0000000000000000000000000000000000000000000000000000000008152600401610d6c90611cf4565b60405180910390fd5b81816000015414610dbb576040517f08c379a0000000000000000000000000000000000000000000000000000000008152600401610db290611d60565b60405180910390fd5b8060030160019054906101000a900473ffffffffffffffffffffffffffffffffffffffff1673ffffffffffffffffffffffffffffffffffffffff166108fc349081150290604051600060405180830381858888f19350505050158015610e25573d6000803e3d6000fd5b508273ffffffffffffffffffffffffffffffffffffffff166342842e0e303384600101546040518463ffffffff1660e01b8152600401610e6793929190611c14565b600060405180830381600087803b158015610e8157600080fd5b505af1158015610e95573d6000803e3d6000fd5b5050505060018160030160006101000a81548160ff021916908315150217905550338160040160006101000a81548173ffffffffffffffffffffffffffffffffffffffff021916908373ffffffffffffffffffffffffffffffffffffffff160217905550610f036002611521565b8273ffffffffffffffffffffffffffffffffffffffff168160010154837fc2e0134e32adce48747c2b66ec0bacd350c7374e959b6056c91bab4dca43ae1b84600201548560030160019054906101000a900473ffffffffffffffffffffffffffffffffffffffff1633604051610f7b93929190611ddf565b60405180910390a45060016000819055505050565b60606000610f9e6001611513565b905060008060005b83811015611047578573ffffffffffffffffffffffffffffffffffffffff1660056000600184610fd691906119f9565b815260200190815260200160002060040160009054906101000a900473ffffffffffffffffffffffffffffffffffffffff1673ffffffffffffffffffffffffffffffffffffffff1614156110345760018361103191906119f9565b92505b808061103f90611a4f565b915050610fa6565b5060008267ffffffffffffffff81111561106457611063611a98565b5b60405190808252806020026020018201604052801561109d57816020015b61108a611537565b8152602001906001900390816110825790505b50905060005b848110156112cd578673ffffffffffffffffffffffffffffffffffffffff16600560006001846110d391906119f9565b815260200190815260200160002060040160009054906101000a900473ffffffffffffffffffffffffffffffffffffffff1673ffffffffffffffffffffffffffffffffffffffff1614156112ba57600060018261113091906119f9565b9050600560008281526020019081526020016000206040518060e00160405290816000820154815260200160018201548152602001600282015481526020016003820160009054906101000a900460ff161515151581526020016003820160019054906101000a900473ffffffffffffffffffffffffffffffffffffffff1673ffffffffffffffffffffffffffffffffffffffff1673ffffffffffffffffffffffffffffffffffffffff1681526020016004820160009054906101000a900473ffffffffffffffffffffffffffffffffffffffff1673ffffffffffffffffffffffffffffffffffffffff1673ffffffffffffffffffffffffffffffffffffffff1681526020016005820160009054906101000a900473ffffffffffffffffffffffffffffffffffffffff1673ffffffffffffffffffffffffffffffffffffffff1673ffffffffffffffffffffffffffffffffffffffff168152505083858151811061129e5761129d611ac7565b5b60200260200101819052506001846112b691906119f9565b9350505b80806112c590611a4f565b9150506110a3565b5080945050505050919050565b606060006112e86001611513565b905060008167ffffffffffffffff81111561130657611305611a98565b5b60405190808252806020026020018201604052801561133f57816020015b61132c611537565b8152602001906001900390816113245790505b5090506000805b8381101561150957600560006005600060018561136391906119f9565b81526020019081526020016000206000015481526020019081526020016000206040518060e00160405290816000820154815260200160018201548152602001600282015481526020016003820160009054906101000a900460ff161515151581526020016003820160019054906101000a900473ffffffffffffffffffffffffffffffffffffffff1673ffffffffffffffffffffffffffffffffffffffff1673ffffffffffffffffffffffffffffffffffffffff1681526020016004820160009054906101000a900473ffffffffffffffffffffffffffffffffffffffff1673ffffffffffffffffffffffffffffffffffffffff1673ffffffffffffffffffffffffffffffffffffffff1681526020016005820160009054906101000a900473ffffffffffffffffffffffffffffffffffffffff1673ffffffffffffffffffffffffffffffffffffffff1673ffffffffffffffffffffffffffffffffffffffff16815250508383815181106114dc576114db611ac7565b5b60200260200101819052506001826114f491906119f9565b9150808061150190611a4f565b915050611346565b5081935050505090565b600081600001549050919050565b6001816000016000828254019250508190555050565b6040518060e00160405280600081526020016000815260200160008152602001600015158152602001600073ffffffffffffffffffffffffffffffffffffffff168152602001600073ffffffffffffffffffffffffffffffffffffffff168152602001600073ffffffffffffffffffffffffffffffffffffffff1681525090565b600081519050919050565b600082825260208201905092915050565b6000819050602082019050919050565b6000819050919050565b6115f7816115e4565b82525050565b60008115159050919050565b611612816115fd565b82525050565b600073ffffffffffffffffffffffffffffffffffffffff82169050919050565b600061164382611618565b9050919050565b61165381611638565b82525050565b600061166482611618565b9050919050565b61167481611659565b82525050565b60e08201600082015161169060008501826115ee565b5060208201516116a360208501826115ee565b5060408201516116b660408501826115ee565b5060608201516116c96060850182611609565b5060808201516116dc608085018261164a565b5060a08201516116ef60a085018261164a565b5060c082015161170260c085018261166b565b50505050565b6000611714838361167a565b60e08301905092915050565b6000602082019050919050565b6000611738826115b8565b61174281856115c3565b935061174d836115d4565b8060005b8381101561177e5781516117658882611708565b975061177083611720565b925050600181019050611751565b5085935050505092915050565b600060208201905081810360008301526117a5818461172d565b905092915050565b600080fd5b6117bb816115e4565b81146117c657600080fd5b50565b6000813590506117d8816117b2565b92915050565b6000602082840312156117f4576117f36117ad565b5b6000611802848285016117c9565b91505092915050565b60e08201600082015161182160008501826115ee565b50602082015161183460208501826115ee565b50604082015161184760408501826115ee565b50606082015161185a6060850182611609565b50608082015161186d608085018261164a565b5060a082015161188060a085018261164a565b5060c082015161189360c085018261166b565b50505050565b600060e0820190506118ae600083018461180b565b92915050565b6118bd81611659565b81146118c857600080fd5b50565b6000813590506118da816118b4565b92915050565b6000806000606084860312156118f9576118f86117ad565b5b6000611907868287016118cb565b9350506020611918868287016117c9565b9250506040611929868287016117c9565b9150509250925092565b61193c816115e4565b82525050565b60006020820190506119576000830184611933565b92915050565b60008060408385031215611974576119736117ad565b5b6000611982858286016118cb565b9250506020611993858286016117c9565b9150509250929050565b6000602082840312156119b3576119b26117ad565b5b60006119c1848285016118cb565b91505092915050565b7f4e487b7100000000000000000000000000000000000000000000000000000000600052601160045260246000fd5b6000611a04826115e4565b9150611a0f836115e4565b9250827fffffffffffffffffffffffffffffffffffffffffffffffffffffffffffffffff03821115611a4457611a436119ca565b5b828201905092915050565b6000611a5a826115e4565b91507fffffffffffffffffffffffffffffffffffffffffffffffffffffffffffffffff821415611a8d57611a8c6119ca565b5b600182019050919050565b7f4e487b7100000000000000000000000000000000000000000000000000000000600052604160045260246000fd5b7f4e487b7100000000000000000000000000000000000000000000000000000000600052603260045260246000fd5b600082825260208201905092915050565b7f5265656e7472616e637947756172643a207265656e7472616e742063616c6c00600082015250565b6000611b3d601f83611af6565b9150611b4882611b07565b602082019050919050565b60006020820190508181036000830152611b6c81611b30565b9050919050565b7f4c697374696e672070726963652073686f756c64206265206174206c6561737460008201527f20302e3030310000000000000000000000000000000000000000000000000000602082015250565b6000611bcf602683611af6565b9150611bda82611b73565b604082019050919050565b60006020820190508181036000830152611bfe81611bc2565b9050919050565b611c0e81611659565b82525050565b6000606082019050611c296000830186611c05565b611c366020830185611c05565b611c436040830184611933565b949350505050565b6000606082019050611c606000830186611933565b611c6d6020830185611c05565b611c7a6040830184611c05565b949350505050565b7f50726963652073686f756c6420626520657175616c20746f206974656d20707260008201527f6963650000000000000000000000000000000000000000000000000000000000602082015250565b6000611cde602383611af6565b9150611ce982611c82565b604082019050919050565b60006020820190508181036000830152611d0d81611cd1565b9050919050565b7f54686973206974656d20646f6573206e6f742065786973740000000000000000600082015250565b6000611d4a601883611af6565b9150611d5582611d14565b602082019050919050565b60006020820190508181036000830152611d7981611d3d565b9050919050565b6000819050919050565b6000611da5611da0611d9b84611618565b611d80565b611618565b9050919050565b6000611db782611d8a565b9050919050565b6000611dc982611dac565b9050919050565b611dd981611dbe565b82525050565b6000606082019050611df46000830186611933565b611e016020830185611dd0565b611e0e6040830184611c05565b94935050505056fea2646970667358221220f81e7024b339c5cc58bf60c2c06ee6a51fbbffd77748d18b587d055da4b729c664736f6c63430008090033",
  "linkReferences": {},
  "deployedLinkReferences": {}
}