{
  "_format": "hh-sol-artifact-1",
  "contractName": "Marketplace",
  "sourceName": "contracts/Marketplace.sol",
  "abi": [
    {
      "inputs": [],
      "stateMutability": "nonpayable",
      "type": "constructor"
    },
    {
      "anonymous": false,
      "inputs": [
        {
          "indexed": false,
          "internalType": "uint256",
          "name": "price",
          "type": "uint256"
        },
        {
          "indexed": true,
          "internalType": "uint256",
          "name": "itemId",
          "type": "uint256"
        },
        {
          "indexed": true,
          "internalType": "uint256",
          "name": "tokenId",
          "type": "uint256"
        },
        {
          "indexed": true,
          "internalType": "address",
          "name": "nftContract",
          "type": "address"
        },
        {
          "indexed": false,
          "internalType": "address",
          "name": "seller",
          "type": "address"
        },
        {
          "indexed": false,
          "internalType": "address",
          "name": "buyer",
          "type": "address"
        }
      ],
      "name": "MarketItemBuy",
      "type": "event"
    },
    {
      "anonymous": false,
      "inputs": [
        {
          "indexed": false,
          "internalType": "uint256",
          "name": "price",
          "type": "uint256"
        },
        {
          "indexed": true,
          "internalType": "uint256",
          "name": "itemId",
          "type": "uint256"
        },
        {
          "indexed": true,
          "internalType": "uint256",
          "name": "tokenId",
          "type": "uint256"
        },
        {
          "indexed": true,
          "internalType": "address",
          "name": "nftContract",
          "type": "address"
        },
        {
          "indexed": false,
          "internalType": "address",
          "name": "seller",
          "type": "address"
        },
        {
          "indexed": false,
          "internalType": "address",
          "name": "owner",
          "type": "address"
        }
      ],
      "name": "MarketItemCreated",
      "type": "event"
    },
    {
      "anonymous": false,
      "inputs": [
        {
          "indexed": false,
          "internalType": "uint256",
          "name": "price",
          "type": "uint256"
        },
        {
          "indexed": true,
          "internalType": "uint256",
          "name": "itemId",
          "type": "uint256"
        },
        {
          "indexed": true,
          "internalType": "uint256",
          "name": "tokenId",
          "type": "uint256"
        },
        {
          "indexed": true,
          "internalType": "address",
          "name": "nftContract",
          "type": "address"
        },
        {
          "indexed": false,
          "internalType": "address",
          "name": "seller",
          "type": "address"
        },
        {
          "indexed": false,
          "internalType": "address",
          "name": "owner",
          "type": "address"
        }
      ],
      "name": "MarketItemSell",
      "type": "event"
    },
    {
      "anonymous": false,
      "inputs": [
        {
          "indexed": false,
          "internalType": "uint256",
          "name": "price",
          "type": "uint256"
        },
        {
          "indexed": true,
          "internalType": "uint256",
          "name": "itemId",
          "type": "uint256"
        },
        {
          "indexed": true,
          "internalType": "uint256",
          "name": "tokenId",
          "type": "uint256"
        },
        {
          "indexed": true,
          "internalType": "address",
          "name": "nftContract",
          "type": "address"
        },
        {
          "indexed": false,
          "internalType": "address",
          "name": "seller",
          "type": "address"
        },
        {
          "indexed": false,
          "internalType": "address",
          "name": "buyer",
          "type": "address"
        }
      ],
      "name": "MarketItemSend",
      "type": "event"
    },
    {
      "inputs": [
        {
          "internalType": "address",
          "name": "nftContract",
          "type": "address"
        },
        {
          "internalType": "uint256",
          "name": "itemId",
          "type": "uint256"
        }
      ],
      "name": "createMarketBuy",
      "outputs": [],
      "stateMutability": "payable",
      "type": "function"
    },
    {
      "inputs": [
        {
          "internalType": "address",
          "name": "nftContract",
          "type": "address"
        },
        {
          "internalType": "uint256",
          "name": "tokenId",
          "type": "uint256"
        },
        {
          "internalType": "uint256",
          "name": "price",
          "type": "uint256"
        }
      ],
      "name": "createMarketItem",
      "outputs": [],
      "stateMutability": "payable",
      "type": "function"
    },
    {
      "inputs": [
        {
          "internalType": "address",
          "name": "nftContract",
          "type": "address"
        },
        {
          "internalType": "uint256",
          "name": "itemId",
          "type": "uint256"
        },
        {
          "internalType": "uint256",
          "name": "price",
          "type": "uint256"
        }
      ],
      "name": "createMarketSell",
      "outputs": [],
      "stateMutability": "payable",
      "type": "function"
    },
    {
      "inputs": [
        {
          "internalType": "address",
          "name": "nftContract",
          "type": "address"
        },
        {
          "internalType": "uint256",
          "name": "itemId",
          "type": "uint256"
        },
        {
          "internalType": "address",
          "name": "to",
          "type": "address"
        }
      ],
      "name": "createMarketSend",
      "outputs": [],
      "stateMutability": "payable",
      "type": "function"
    },
    {
      "inputs": [],
      "name": "getAllBuyMarketItems",
      "outputs": [
        {
          "components": [
            {
              "internalType": "uint256",
              "name": "itemId",
              "type": "uint256"
            },
            {
              "internalType": "uint256",
              "name": "tokenId",
              "type": "uint256"
            },
            {
              "internalType": "uint256",
              "name": "price",
              "type": "uint256"
            },
            {
              "internalType": "bool",
              "name": "isSold",
              "type": "bool"
            },
            {
              "internalType": "address payable",
              "name": "seller",
              "type": "address"
            },
            {
              "internalType": "address payable",
              "name": "owner",
              "type": "address"
            },
            {
              "internalType": "address",
              "name": "nftContract",
              "type": "address"
            }
          ],
          "internalType": "struct Marketplace.MarketItem[]",
          "name": "",
          "type": "tuple[]"
        }
      ],
      "stateMutability": "view",
      "type": "function"
    },
    {
      "inputs": [],
      "name": "getAllMarketItems",
      "outputs": [
        {
          "components": [
            {
              "internalType": "uint256",
              "name": "itemId",
              "type": "uint256"
            },
            {
              "internalType": "uint256",
              "name": "tokenId",
              "type": "uint256"
            },
            {
              "internalType": "uint256",
              "name": "price",
              "type": "uint256"
            },
            {
              "internalType": "bool",
              "name": "isSold",
              "type": "bool"
            },
            {
              "internalType": "address payable",
              "name": "seller",
              "type": "address"
            },
            {
              "internalType": "address payable",
              "name": "owner",
              "type": "address"
            },
            {
              "internalType": "address",
              "name": "nftContract",
              "type": "address"
            }
          ],
          "internalType": "struct Marketplace.MarketItem[]",
          "name": "",
          "type": "tuple[]"
        }
      ],
      "stateMutability": "view",
      "type": "function"
    },
    {
      "inputs": [],
      "name": "getListingCommision",
      "outputs": [
        {
          "internalType": "uint256",
          "name": "",
          "type": "uint256"
        }
      ],
      "stateMutability": "view",
      "type": "function"
    },
    {
      "inputs": [
        {
          "internalType": "address",
          "name": "MyAddress",
          "type": "address"
        }
      ],
      "name": "getMyNFTs",
      "outputs": [
        {
          "components": [
            {
              "internalType": "uint256",
              "name": "itemId",
              "type": "uint256"
            },
            {
              "internalType": "uint256",
              "name": "tokenId",
              "type": "uint256"
            },
            {
              "internalType": "uint256",
              "name": "price",
              "type": "uint256"
            },
            {
              "internalType": "bool",
              "name": "isSold",
              "type": "bool"
            },
            {
              "internalType": "address payable",
              "name": "seller",
              "type": "address"
            },
            {
              "internalType": "address payable",
              "name": "owner",
              "type": "address"
            },
            {
              "internalType": "address",
              "name": "nftContract",
              "type": "address"
            }
          ],
          "internalType": "struct Marketplace.MarketItem[]",
          "name": "",
          "type": "tuple[]"
        }
      ],
      "stateMutability": "view",
      "type": "function"
    },
    {
      "inputs": [
        {
          "internalType": "uint256",
          "name": "itemId",
          "type": "uint256"
        }
      ],
      "name": "getNFT",
      "outputs": [
        {
          "components": [
            {
              "internalType": "uint256",
              "name": "itemId",
              "type": "uint256"
            },
            {
              "internalType": "uint256",
              "name": "tokenId",
              "type": "uint256"
            },
            {
              "internalType": "uint256",
              "name": "price",
              "type": "uint256"
            },
            {
              "internalType": "bool",
              "name": "isSold",
              "type": "bool"
            },
            {
              "internalType": "address payable",
              "name": "seller",
              "type": "address"
            },
            {
              "internalType": "address payable",
              "name": "owner",
              "type": "address"
            },
            {
              "internalType": "address",
              "name": "nftContract",
              "type": "address"
            }
          ],
          "internalType": "struct Marketplace.MarketItem",
          "name": "",
          "type": "tuple"
        }
      ],
      "stateMutability": "view",
      "type": "function"
    }
  ],
  "bytecode": "0x608060405266470de4df82000060045534801561001b57600080fd5b50600160008190555033600360006101000a81548173ffffffffffffffffffffffffffffffffffffffff021916908373ffffffffffffffffffffffffffffffffffffffff16021790555061202c806100746000396000f3fe6080604052600436106100865760003560e01c80639ec16e39116100595780639ec16e391461012b578063a5e331fe14610147578063a88b4a8914610172578063e921ee6e1461018e578063f16d376c146101cb57610086565b80634cf036e21461008b578063576f7ea7146100a757806358eb2df5146100e45780636a8b52ae14610100575b600080fd5b6100a560048036038101906100a0919061176f565b6101f6565b005b3480156100b357600080fd5b506100ce60048036038101906100c991906117c2565b6103e8565b6040516100db91906118d7565b60405180910390f35b6100fe60048036038101906100f991906118f2565b6105c1565b005b34801561010c57600080fd5b506101156108a8565b6040516101229190611954565b60405180910390f35b610145600480360381019061014091906118f2565b6108b2565b005b34801561015357600080fd5b5061015c610b61565b6040516101699190611aac565b60405180910390f35b61018c60048036038101906101879190611ace565b610deb565b005b34801561019a57600080fd5b506101b560048036038101906101b09190611b0e565b6110ae565b6040516101c29190611aac565b60405180910390f35b3480156101d757600080fd5b506101e06113f8565b6040516101ed9190611aac565b60405180910390f35b6002600054141561023c576040517f08c379a000000000000000000000000000000000000000000000000000000000815260040161023390611b98565b60405180910390fd5b60026000819055506000600560008481526020019081526020016000209050828160000154146102a1576040517f08c379a000000000000000000000000000000000000000000000000000000000815260040161029890611c04565b60405180910390fd5b8373ffffffffffffffffffffffffffffffffffffffff166342842e0e308484600101546040518463ffffffff1660e01b81526004016102e293929190611c33565b600060405180830381600087803b1580156102fc57600080fd5b505af1158015610310573d6000803e3d6000fd5b5050505060018160030160006101000a81548160ff021916908315150217905550818160040160006101000a81548173ffffffffffffffffffffffffffffffffffffffff021916908373ffffffffffffffffffffffffffffffffffffffff16021790555061037e6002611631565b8373ffffffffffffffffffffffffffffffffffffffff168160010154847febad099b8bb23dd3a2da1bc7ffce1bbfe86670067d9dd141d428498c99b98dbd846002015433876040516103d293929190611c6a565b60405180910390a4506001600081905550505050565b6103f0611655565b60006103fc6001611647565b9050610406611655565b60005b828110156105b65784600560006001846104239190611cd0565b81526020019081526020016000206000015414156105a3576005600060018361044c9190611cd0565b81526020019081526020016000206040518060e00160405290816000820154815260200160018201548152602001600282015481526020016003820160009054906101000a900460ff161515151581526020016003820160019054906101000a900473ffffffffffffffffffffffffffffffffffffffff1673ffffffffffffffffffffffffffffffffffffffff1673ffffffffffffffffffffffffffffffffffffffff1681526020016004820160009054906101000a900473ffffffffffffffffffffffffffffffffffffffff1673ffffffffffffffffffffffffffffffffffffffff1673ffffffffffffffffffffffffffffffffffffffff1681526020016005820160009054906101000a900473ffffffffffffffffffffffffffffffffffffffff1673ffffffffffffffffffffffffffffffffffffffff1673ffffffffffffffffffffffffffffffffffffffff168152505091505b80806105ae90611d26565b915050610409565b508092505050919050565b60026000541415610607576040517f08c379a00000000000000000000000000000000000000000000000000000000081526004016105fe90611b98565b60405180910390fd5b600260008190555060008082141561061e57600190505b6106286001611631565b60006106346001611647565b90506040518060e0016040528082815260200185815260200184815260200183151581526020013373ffffffffffffffffffffffffffffffffffffffff1681526020013373ffffffffffffffffffffffffffffffffffffffff1681526020018673ffffffffffffffffffffffffffffffffffffffff168152506005600083815260200190815260200160002060008201518160000155602082015181600101556040820151816002015560608201518160030160006101000a81548160ff02191690831515021790555060808201518160030160016101000a81548173ffffffffffffffffffffffffffffffffffffffff021916908373ffffffffffffffffffffffffffffffffffffffff16021790555060a08201518160040160006101000a81548173ffffffffffffffffffffffffffffffffffffffff021916908373ffffffffffffffffffffffffffffffffffffffff16021790555060c08201518160050160006101000a81548173ffffffffffffffffffffffffffffffffffffffff021916908373ffffffffffffffffffffffffffffffffffffffff1602179055509050508473ffffffffffffffffffffffffffffffffffffffff166323b872dd3330876040518463ffffffff1660e01b815260040161081393929190611c33565b600060405180830381600087803b15801561082d57600080fd5b505af1158015610841573d6000803e3d6000fd5b505050508473ffffffffffffffffffffffffffffffffffffffff1684827f9647d2e9a23c1809a0461ae22d7688427bce1e7e0b92d0cb92b0e7f4dd72dd9c86333360405161089193929190611c6a565b60405180910390a450506001600081905550505050565b6000600454905090565b600260005414156108f8576040517f08c379a00000000000000000000000000000000000000000000000000000000081526004016108ef90611b98565b60405180910390fd5b600260008190555066038d7ea4c680008111610949576040517f08c379a000000000000000000000000000000000000000000000000000000000815260040161094090611de1565b60405180910390fd5b6000610954836103e8565b90506040518060e00160405280848152602001826020015181526020018381526020016000151581526020013373ffffffffffffffffffffffffffffffffffffffff1681526020013373ffffffffffffffffffffffffffffffffffffffff1681526020018573ffffffffffffffffffffffffffffffffffffffff168152506005600085815260200190815260200160002060008201518160000155602082015181600101556040820151816002015560608201518160030160006101000a81548160ff02191690831515021790555060808201518160030160016101000a81548173ffffffffffffffffffffffffffffffffffffffff021916908373ffffffffffffffffffffffffffffffffffffffff16021790555060a08201518160040160006101000a81548173ffffffffffffffffffffffffffffffffffffffff021916908373ffffffffffffffffffffffffffffffffffffffff16021790555060c08201518160050160006101000a81548173ffffffffffffffffffffffffffffffffffffffff021916908373ffffffffffffffffffffffffffffffffffffffff1602179055509050508373ffffffffffffffffffffffffffffffffffffffff168160200151847f699d0232d9fbd887c8eae26af9108ffd4f78e5e75790bec568cb8bdf21d8dc32853333604051610b4b93929190611c6a565b60405180910390a4506001600081905550505050565b60606000610b6f6002611647565b610b796001611647565b610b839190611e01565b905060008167ffffffffffffffff811115610ba157610ba0611e35565b5b604051908082528060200260200182016040528015610bda57816020015b610bc7611655565b815260200190600190039081610bbf5790505b5090506000805b83811015610de1576000151560056000600184610bfe9190611cd0565b815260200190815260200160002060030160009054906101000a900460ff1615151415610dce576005600060056000600185610c3a9190611cd0565b81526020019081526020016000206000015481526020019081526020016000206040518060e00160405290816000820154815260200160018201548152602001600282015481526020016003820160009054906101000a900460ff161515151581526020016003820160019054906101000a900473ffffffffffffffffffffffffffffffffffffffff1673ffffffffffffffffffffffffffffffffffffffff1673ffffffffffffffffffffffffffffffffffffffff1681526020016004820160009054906101000a900473ffffffffffffffffffffffffffffffffffffffff1673ffffffffffffffffffffffffffffffffffffffff1673ffffffffffffffffffffffffffffffffffffffff1681526020016005820160009054906101000a900473ffffffffffffffffffffffffffffffffffffffff1673ffffffffffffffffffffffffffffffffffffffff1673ffffffffffffffffffffffffffffffffffffffff1681525050838381518110610db357610db2611e64565b5b6020026020010181905250600182610dcb9190611cd0565b91505b8080610dd990611d26565b915050610be1565b5081935050505090565b60026000541415610e31576040517f08c379a0000000000000000000000000000000000000000000000000000000008152600401610e2890611b98565b60405180910390fd5b6002600081905550600060056000838152602001908152602001600020905080600201543414610e96576040517f08c379a0000000000000000000000000000000000000000000000000000000008152600401610e8d90611f05565b60405180910390fd5b81816000015414610edc576040517f08c379a0000000000000000000000000000000000000000000000000000000008152600401610ed390611c04565b60405180910390fd5b8060030160019054906101000a900473ffffffffffffffffffffffffffffffffffffffff1673ffffffffffffffffffffffffffffffffffffffff166108fc349081150290604051600060405180830381858888f19350505050158015610f46573d6000803e3d6000fd5b508273ffffffffffffffffffffffffffffffffffffffff166342842e0e303384600101546040518463ffffffff1660e01b8152600401610f8893929190611c33565b600060405180830381600087803b158015610fa257600080fd5b505af1158015610fb6573d6000803e3d6000fd5b5050505060018160030160006101000a81548160ff021916908315150217905550338160040160006101000a81548173ffffffffffffffffffffffffffffffffffffffff021916908373ffffffffffffffffffffffffffffffffffffffff1602179055506110246002611631565b8273ffffffffffffffffffffffffffffffffffffffff168160010154837fc2e0134e32adce48747c2b66ec0bacd350c7374e959b6056c91bab4dca43ae1b60008560030160019054906101000a900473ffffffffffffffffffffffffffffffffffffffff163360405161109993929190611fbf565b60405180910390a45060016000819055505050565b606060006110bc6001611647565b905060008060005b83811015611165578573ffffffffffffffffffffffffffffffffffffffff16600560006001846110f49190611cd0565b815260200190815260200160002060040160009054906101000a900473ffffffffffffffffffffffffffffffffffffffff1673ffffffffffffffffffffffffffffffffffffffff1614156111525760018361114f9190611cd0565b92505b808061115d90611d26565b9150506110c4565b5060008267ffffffffffffffff81111561118257611181611e35565b5b6040519080825280602002602001820160405280156111bb57816020015b6111a8611655565b8152602001906001900390816111a05790505b50905060005b848110156113eb578673ffffffffffffffffffffffffffffffffffffffff16600560006001846111f19190611cd0565b815260200190815260200160002060040160009054906101000a900473ffffffffffffffffffffffffffffffffffffffff1673ffffffffffffffffffffffffffffffffffffffff1614156113d857600060018261124e9190611cd0565b9050600560008281526020019081526020016000206040518060e00160405290816000820154815260200160018201548152602001600282015481526020016003820160009054906101000a900460ff161515151581526020016003820160019054906101000a900473ffffffffffffffffffffffffffffffffffffffff1673ffffffffffffffffffffffffffffffffffffffff1673ffffffffffffffffffffffffffffffffffffffff1681526020016004820160009054906101000a900473ffffffffffffffffffffffffffffffffffffffff1673ffffffffffffffffffffffffffffffffffffffff1673ffffffffffffffffffffffffffffffffffffffff1681526020016005820160009054906101000a900473ffffffffffffffffffffffffffffffffffffffff1673ffffffffffffffffffffffffffffffffffffffff1673ffffffffffffffffffffffffffffffffffffffff16815250508385815181106113bc576113bb611e64565b5b60200260200101819052506001846113d49190611cd0565b9350505b80806113e390611d26565b9150506111c1565b5080945050505050919050565b606060006114066001611647565b905060008167ffffffffffffffff81111561142457611423611e35565b5b60405190808252806020026020018201604052801561145d57816020015b61144a611655565b8152602001906001900390816114425790505b5090506000805b838110156116275760056000600560006001856114819190611cd0565b81526020019081526020016000206000015481526020019081526020016000206040518060e00160405290816000820154815260200160018201548152602001600282015481526020016003820160009054906101000a900460ff161515151581526020016003820160019054906101000a900473ffffffffffffffffffffffffffffffffffffffff1673ffffffffffffffffffffffffffffffffffffffff1673ffffffffffffffffffffffffffffffffffffffff1681526020016004820160009054906101000a900473ffffffffffffffffffffffffffffffffffffffff1673ffffffffffffffffffffffffffffffffffffffff1673ffffffffffffffffffffffffffffffffffffffff1681526020016005820160009054906101000a900473ffffffffffffffffffffffffffffffffffffffff1673ffffffffffffffffffffffffffffffffffffffff1673ffffffffffffffffffffffffffffffffffffffff16815250508383815181106115fa576115f9611e64565b5b60200260200101819052506001826116129190611cd0565b9150808061161f90611d26565b915050611464565b5081935050505090565b6001816000016000828254019250508190555050565b600081600001549050919050565b6040518060e00160405280600081526020016000815260200160008152602001600015158152602001600073ffffffffffffffffffffffffffffffffffffffff168152602001600073ffffffffffffffffffffffffffffffffffffffff168152602001600073ffffffffffffffffffffffffffffffffffffffff1681525090565b600080fd5b600073ffffffffffffffffffffffffffffffffffffffff82169050919050565b6000611706826116db565b9050919050565b611716816116fb565b811461172157600080fd5b50565b6000813590506117338161170d565b92915050565b6000819050919050565b61174c81611739565b811461175757600080fd5b50565b60008135905061176981611743565b92915050565b600080600060608486031215611788576117876116d6565b5b600061179686828701611724565b93505060206117a78682870161175a565b92505060406117b886828701611724565b9150509250925092565b6000602082840312156117d8576117d76116d6565b5b60006117e68482850161175a565b91505092915050565b6117f881611739565b82525050565b60008115159050919050565b611813816117fe565b82525050565b6000611824826116db565b9050919050565b61183481611819565b82525050565b611843816116fb565b82525050565b60e08201600082015161185f60008501826117ef565b50602082015161187260208501826117ef565b50604082015161188560408501826117ef565b506060820151611898606085018261180a565b5060808201516118ab608085018261182b565b5060a08201516118be60a085018261182b565b5060c08201516118d160c085018261183a565b50505050565b600060e0820190506118ec6000830184611849565b92915050565b60008060006060848603121561190b5761190a6116d6565b5b600061191986828701611724565b935050602061192a8682870161175a565b925050604061193b8682870161175a565b9150509250925092565b61194e81611739565b82525050565b60006020820190506119696000830184611945565b92915050565b600081519050919050565b600082825260208201905092915050565b6000819050602082019050919050565b60e0820160008201516119b160008501826117ef565b5060208201516119c460208501826117ef565b5060408201516119d760408501826117ef565b5060608201516119ea606085018261180a565b5060808201516119fd608085018261182b565b5060a0820151611a1060a085018261182b565b5060c0820151611a2360c085018261183a565b50505050565b6000611a35838361199b565b60e08301905092915050565b6000602082019050919050565b6000611a598261196f565b611a63818561197a565b9350611a6e8361198b565b8060005b83811015611a9f578151611a868882611a29565b9750611a9183611a41565b925050600181019050611a72565b5085935050505092915050565b60006020820190508181036000830152611ac68184611a4e565b905092915050565b60008060408385031215611ae557611ae46116d6565b5b6000611af385828601611724565b9250506020611b048582860161175a565b9150509250929050565b600060208284031215611b2457611b236116d6565b5b6000611b3284828501611724565b91505092915050565b600082825260208201905092915050565b7f5265656e7472616e637947756172643a207265656e7472616e742063616c6c00600082015250565b6000611b82601f83611b3b565b9150611b8d82611b4c565b602082019050919050565b60006020820190508181036000830152611bb181611b75565b9050919050565b7f54686973206974656d20646f6573206e6f742065786973740000000000000000600082015250565b6000611bee601883611b3b565b9150611bf982611bb8565b602082019050919050565b60006020820190508181036000830152611c1d81611be1565b9050919050565b611c2d816116fb565b82525050565b6000606082019050611c486000830186611c24565b611c556020830185611c24565b611c626040830184611945565b949350505050565b6000606082019050611c7f6000830186611945565b611c8c6020830185611c24565b611c996040830184611c24565b949350505050565b7f4e487b7100000000000000000000000000000000000000000000000000000000600052601160045260246000fd5b6000611cdb82611739565b9150611ce683611739565b9250827fffffffffffffffffffffffffffffffffffffffffffffffffffffffffffffffff03821115611d1b57611d1a611ca1565b5b828201905092915050565b6000611d3182611739565b91507fffffffffffffffffffffffffffffffffffffffffffffffffffffffffffffffff821415611d6457611d63611ca1565b5b600182019050919050565b7f4c697374696e672070726963652073686f756c64206265206174206c6561737460008201527f20302e3030310000000000000000000000000000000000000000000000000000602082015250565b6000611dcb602683611b3b565b9150611dd682611d6f565b604082019050919050565b60006020820190508181036000830152611dfa81611dbe565b9050919050565b6000611e0c82611739565b9150611e1783611739565b925082821015611e2a57611e29611ca1565b5b828203905092915050565b7f4e487b7100000000000000000000000000000000000000000000000000000000600052604160045260246000fd5b7f4e487b7100000000000000000000000000000000000000000000000000000000600052603260045260246000fd5b7f50726963652073686f756c6420626520657175616c20746f206974656d20707260008201527f6963650000000000000000000000000000000000000000000000000000000000602082015250565b6000611eef602383611b3b565b9150611efa82611e93565b604082019050919050565b60006020820190508181036000830152611f1e81611ee2565b9050919050565b6000819050919050565b6000819050919050565b6000611f54611f4f611f4a84611f25565b611f2f565b611739565b9050919050565b611f6481611f39565b82525050565b6000611f85611f80611f7b846116db565b611f2f565b6116db565b9050919050565b6000611f9782611f6a565b9050919050565b6000611fa982611f8c565b9050919050565b611fb981611f9e565b82525050565b6000606082019050611fd46000830186611f5b565b611fe16020830185611fb0565b611fee6040830184611c24565b94935050505056fea264697066735822122068411edef95e8753a663251beb12d5c2a55ed01c2210e1dc4c256fc917f2a11964736f6c63430008090033",
  "linkReferences": {},
  "deployedLinkReferences": {}
}